:020000040800F2
:10000000480F00204D020008A92B00087D28000899
:10001000A52B00085F040008193B00080000000041
:10002000000000000000000000000000A9330008EC
:10003000C504000800000000AD2B0008AB33000829
:1000400067020008670200086702000867020008EC
:1000500067020008670200086702000867020008DC
:1000600067020008670200086702000867020008CC
:1000700067020008670200086702000867020008BC
:1000800067020008670200086702000867020008AC
:10009000650400086702000867020008670200089C
:1000A000670200086702000867020008670200088C
:1000B0007D34000867020008670200086702000834
:1000C000670200086702000867020008670200086C
:1000D000670200086702000867020008F93A000892
:1000E000670200086702000867020008670200084C
:1000F000670200086702000867020008670200083C
:10010000670200086702000867020008670200082B
:10011000670200086702000867020008670200081B
:10012000670200086702000867020008670200080B
:1001300067020008670200086702000867020008FB
:1001400067020008670200086702000867020008EB
:10015000670200086702000867020008093B000800
:1001600067020008670200086702000867020008CB
:10017000670200086702000867020008000000002C
:100180006702000867020008E5350008F535000839
:10019000670200086702000867020008670200089B
:1001A00000000000000000006702000800F002F8F4
:1001B00000F03CF80AA090E8000C82448344AAF1C5
:1001C0000107DA4501D100F031F8AFF2090EBAE8C3
:1001D0000F0013F0010F18BFFB1A43F0010318477B
:1001E000E058000000590000103A24BF78C878C1D8
:1001F000FAD8520724BF30C830C144BF04680C602D
:10020000704700000023002400250026103A28BF74
:1002100078C1FBD8520728BF30C148BF0B60704778
:100220001FB505F02BFC1FBD10B510BD00F0E2F8A6
:100230001146FFF7F5FF04F0B3F800F000F903B43E
:10024000FFF7F2FF03BC00F003F900000948804704
:1002500009480047FEE7FEE7FEE7FEE7FEE7FEE7A8
:10026000FEE7FEE7FEE7FEE704480549054A064BC0
:100270007047000069340008AD01000848090020FB
:10028000480F0020480B0020480B002053EA020CC6
:1002900000F069802DE9F04B4FF00006002B1FBFE6
:1002A000B3FA83F503FA05F424FA05F65E4012BFAB
:1002B0001643B2FA82F502FA05F4C5F120051EBF15
:1002C00022FA05FC44EA0C04203556EA044C4FEAB5
:1002D000144418BF641C4FF000084FF0000990420E
:1002E00071EB030C39D3002919BFB1FA81F701FA78
:1002F00007F6B0FA80F700FA07F6C7F120071EBF2D
:1003000020FA07FC46EA0C062037B6FBF4FCA7EB04
:100310000507103F07F01F0BCBF120060CFA0BFB73
:100320002CFA06F644BFB3460026202FA4BF5E4633
:100330004FF0000B5BEA060C08BF4FF0010B19EB06
:100340000B09ABFB027C48EB0608C01B06FB02CC8A
:100350000BFB03CC71EB0C01C1E70B460246414697
:100360004846BDE8F08B13B54FF000004FF0000198
:10037000AFF30080BDE81C4070474FF0000200B5AD
:10038000134694469646203922BFA0E80C50A0E8B8
:100390000C50B1F12001BFF4F7AF090728BFA0E866
:1003A0000C5048BF0CC05DF804EB890028BF40F832
:1003B000042B08BF704748BF20F8022B11F0804F74
:1003C00018BF00F8012B704770477047704710B591
:1003D00000F008F8006810BD10B5044600F002F8FF
:1003E000046010BD00487047E408002000487047D2
:1003F000E40800207546FFF7F9FFAE4605006946A0
:10040000534620F00700854618B020B5FFF72CFFB3
:10041000BDE820404FF000064FF000074FF0000805
:100420004FF0000B21F00701AC46ACE8C009ACE886
:10043000C009ACE8C009ACE8C0098D46704710B5EA
:100440000446AFF300802046BDE81040FFF7F7BE3A
:1004500001491820ABBEFEE726000200704700BF2E
:10046000FEE7000010B5024800F045FA10BD00009C
:10047000DC000020F8B507460C4615461E464FF432
:1004800000700D49086000208860C860082008617D
:10049000380A0A4908704F70200A8870CC70280A00
:1004A00008714D71300A8871CE716B460A46024957
:1004B000034800F020F8F8BDF40200203C000020C2
:1004C000DC000020704772B600BFFEE710B50246A0
:1004D00092F82030012B01D0022B06D11068406920
:1004E000084314686061002010BD506A40F4802009
:1004F00050620120F8E7F0B504460D461E4694F818
:10050000207020688368A86800B900E000BF012F50
:1005100001D0022F7DD103F0806030B903F000607C
:1005200018B903F0805000287ED0C3F30161012088
:1005300088403060A86860B9B5F800C0E86840EA53
:100540004C5C206800F5C07000EB0110C0F800C0E2
:100550000FE0D5E901C040EACC00D5F80CC040EA74
:100560000C00D4F800C00CF5C07C0CEB011CCCF8DE
:100570000000D5F810C0206800F5C07000EB011035
:10058000C0F804C0287D01280ED1206800F5C07095
:1005900000EB0110406840F4807C206800F5C070DA
:1005A00000EB0110C0F804C0D079000692F806C034
:1005B00040EA0C4092F805C040EA0C2092F804C0D2
:1005C00040EA0C00D4F800C00CF5C07C0CEB011C18
:1005D000CCF80C00D078000692F802C040EA0C403B
:1005E00092F801C040EA0C2092F800C040EA0C00EA
:1005F000D4F800C00CF5C07C0CEB011CCCF8080052
:10060000206800F5C07000EB0110006840F0010C9C
:1006100001E00FE008E0206800F5C07000EB011079
:10062000C0F800C00020F0BD606A40F400106062B5
:100630000120F8E7606A40F4802060620120F2E760
:10064000F0B504460A4694F82050012D01D0022D41
:100650007ED1424901F50071086840F00100086050
:10066000086820F47C5008600868566A40EA062052
:100670000860107D00F01F06012000FA06F3C8692B
:100680009843C861A1F50071D069C8B9D1F80C02CE
:100690009843C1F80C02908880B2968940EA0646D9
:1006A00001F51070576940F83760108880B21689DC
:1006B00040EA064601F51070576900EBC700466036
:1006C000D069012819D1D1F80C021843C1F80C02E5
:1006D000908880B2168840EA064601F51070576986
:1006E00040F83760908980B2168940EA064601F5E5
:1006F0001070576900EBC7004660906928B9D1F8BF
:1007000004029843C1F8040204E0D1F8040218433B
:10071000C1F80402106928B9D1F814029843C1F84D
:10072000140204E0D1F814021843C1F81402106A4C
:10073000012804D1D1F81C021843C1F81C02D1F8D9
:10074000000220F00100C1F800020020F0BDFFE728
:10075000606A40F4802060620120F7E70064004096
:10076000704770B5044694F82050012D01D0022D39
:100770007DD151B92068C06800F0030080B9606A7B
:1007800040F400106062012070BD2068006900F034
:10079000030028B9606A40F4001060620120F3E7AA
:1007A000206800F5D87000EB0110006800F004002C
:1007B0009060906840B9206800F5D87000EB011097
:1007C0000068400D106007E0206800F5D87000EB6D
:1007D00001100068C0085060206800F5D87000EB78
:1007E0000110006800F00200D060206800F5D870A9
:1007F00000EB0110406800F00F00082802D3082029
:10080000106108E0206800F5D87000EB0110406826
:1008100000F00F001061206800F5D87000EB0110A7
:10082000406800F47F40000A9061206800F5D870AD
:1008300000EB01104068000C5061206800F5D87092
:1008400000EB011080681870206800F5D87000EB8C
:100850000110806800F47F40000A5870206800F59D
:10086000D87000EB0110806800F47F0000E03CE0ED
:10087000000C9870206800F5D87000EB01108068BB
:10088000000ED870206800F5D87000EB0110C06829
:100890001871206800F5D87000EB0110C06800F4F2
:1008A0007F40000A5871206800F5D87000EB0110F5
:1008B000C06800F47F00000C9871206800F5D870C3
:1008C00000EB0110C068000ED87131B92068C06813
:1008D00040F020002668F06005E02068006940F0E4
:1008E00020002668306100204EE7606A40F48020D6
:1008F0006062012048E72DE9F05F0446002520688A
:1009000046692068D0F80490206887682068D0F88D
:100910000CA02068D0F810B02068D0F8188006F03D
:100920000100002855D007F00100C0B10120216866
:10093000886007F0020018B1204600F010FB0EE0BE
:1009400007F0040010B145F4006508E007F0080066
:1009500010B145F4805502E0204600F0FFFA07F49C
:100960008070C8B14FF480702168886007F400700F
:1009700018B1204600F0F5FA0EE007F4806010B1DF
:1009800045F4005508E007F4006010B145F48045D7
:1009900002E0204600F0E4FA07F48030C8B14FF4DA
:1009A00080302168886007F4003018B1204600F0DC
:1009B000DAFA0EE007F4802010B145F4004508E0B3
:1009C00007F4002010B145F4803502E0204600F025
:1009D000C9FA06F0080038B10AF0100020B145F459
:1009E000007510202168C86006F0040040B10AF0CC
:1009F000080028B108202168C860204600F006FAE7
:100A000006F0020038B12068C06800F0030010B1A1
:100A1000204600F0FDF906F0400038B10BF0100060
:100A200020B145F4806510202168086106F020009F
:100A300040B10BF0080028B1082021680861204669
:100A400000F05AFA06F0100038B12068006900F092
:100A5000030010B1204600F050FA06F4003040B117
:100A600009F0100028B1102021684860204600F0ED
:100A700045FA06F4803040B109F0080028B108209A
:100A800021684860204600F06FFA06F4004088B301
:100A900009F0040078B306F4807020B108F001007A
:100AA00008B145F0010506F4007020B108F002001D
:100AB00008B145F0020506F4806020B108F004009A
:100AC00008B145F0040506F40060A0B108F070001C
:100AD00088B108F07000402817D006DC10280BD031
:100AE00020280CD0302819D10CE0502810D06028D4
:100AF00014D110E01DE019E045F008050FE045F0C5
:100B000010050CE045F0200509E045F0400506E041
:100B100045F0800503E045F4807500E000BF00BFAC
:100B20002068806920F070002168886104202168B5
:100B300048602DB1606A284360622046FFF710FECE
:100B4000BDE8F09F70B504460CB9012070BD94F863
:100B5000200010B9204600F0AFF82068006840F08F
:100B600001002168086000F095FB05460DE000F0EB
:100B700091FB401B0A2808D9606A40F4003060628B
:100B8000052084F820000120E0E72068406800F09C
:100B900001000028EBD02068006820F002002168E6
:100BA000086000F077FB05460DE000F073FB401B8A
:100BB0000A2808D9606A40F400306062052084F891
:100BC00020000120C2E72068406800F002000028F1
:100BD000EBD1207E012806D12068006840F080001B
:100BE0002168086005E02068006820F08000216826
:100BF0000860607E012806D12068006840F040004F
:100C00002168086005E02068006820F04000216845
:100C10000860A07E012806D12068006840F020000E
:100C20002168086005E02068006820F02000216845
:100C30000860E07E012806D12068006820F01000DE
:100C40002168086005E02068006840F01000216815
:100C50000860207F012806D12068006840F0080065
:100C60002168086005E02068006820F0080021681D
:100C70000860607F012806D12068006840F0040009
:100C80002168086005E02068006820F00400216801
:100C90000860D4E9020108432169084361690843F7
:100CA0006168491E08432168C86100206062012014
:100CB00084F82000002049E710B586B004461421CE
:100CC00001A8FFF75AFB4B492068884241D14A48A6
:100CD0000068401C484908600846006801280FD198
:100CE00000BF002000904548006840F00070434974
:100CF00008600846006800F00070009000BF00BF68
:100D000000BF002000903D481038006840F0080007
:100D10003A49103908600846006800F00800009061
:100D200000BF00BF0320019002200290002003902A
:100D3000032004900920059001A9314800F094F99E
:100D400000221146142000F033FB142000F01CFB9D
:100D50004DE02C492068884249D100BF0020009016
:100D60002648006840F08060244908600846006812
:100D700000F08060009000BF00BF1F480068401C6A
:100D80001D4908600846006801280FD100BF0020F7
:100D900000901A48006840F0007018490860084642
:100DA000006800F00070009000BF00BF00BF00208E
:100DB000009012481038006840F002000F491039C6
:100DC00008600846006800F00200009000BF00BF05
:100DD0004FF4405001900220029000200390032025
:100DE00004900920059001A9074800F03DF906B0DC
:100DF00010BD000000640040100000204038024098
:100E0000000C0240006800400004024070470000EF
:100E100010B58AB0044634480068401C3249086066
:100E200001AB03AA00212046FFF79BFC0398A0F228
:100E30000120072854D2DFE800F00405060708095E
:100E40000A0000BF00BF00BF00BF00BF00BF039883
:100E5000401E264908700846007800EB80002449AF
:100E600031F8100000B22149097801EB8101204AD4
:100E700002EB410108819DF805009DF8041040EA4D
:100E800001201A49097801EB810122F811009DF82F
:100E900007009DF8061040EA012000B213490978C6
:100EA00001EB810102EB410148809DF809009DF8AA
:100EB000081040EA012000B20C49097801EB8101D9
:100EC00002EB410188809DF80A000849097801EB8E
:100ED000810102EB41018871064803F0A7FD00E0A3
:100EE00000BF00BF0AB010BD300000204400002049
:100EF000940200201803002070477047704770B5B7
:100F0000044694F82000012822D1022084F8200011
:100F10002068006820F001002168086000F0BAF93C
:100F200005460DE000F0B6F9401B0A2808D9606AB2
:100F300040F400306062052084F82000012070BD7C
:100F40002068406800F001000028EBD16062F6E7FD
:100F5000606A40F4002060620120F0E7704770474B
:100F60007047704770477047704770B50446A56D6D
:100F700000F090F9064694F83500022808D0802049
:100F8000606500BF002084F8340000BF012070BD00
:100F90002068006820F01600216808602068406919
:100FA00020F0800021684861206C08B9A06C28B14D
:100FB0002068006820F00800216808602068006848
:100FC00020F001002168086010E000F063F9801B48
:100FD00005280BD920206065032084F8350000BF68
:100FE000002084F8340000BF0320D0E720680068A8
:100FF00000F001000028E8D194F85C103F20884000
:10100000A860012084F8350000BF002084F8340077
:1010100000BF00BFBBE7014691F83500022803D0AE
:101020008020486501207047052081F83500086858
:10103000006820F001000A6810600020F3E700005B
:1010400070B5044600F026F906462546681C10B126
:1010500004480078054400BF00F01CF9801BA8423A
:10106000FAD370BD20000020F8B502460B460025DB
:10107000002400200021E0E0012606FA01F51E68A8
:1010800006EA0504AC4274D11E7906F00306012E6F
:1010900004D01E7906F00306022E13D190684F008B
:1010A0000326BE40B0434F00DE68BE403043906030
:1010B000506801268E40B0431E79C6F300168E405C
:1010C000304350601E7906F00306032E09D0D06825
:1010D0004F000326BE40B0434F009E68BE403043E1
:1010E000D0601E7906F00306022E13D1CF0802F15C
:1010F000200656F827004E07F70E0F26BE40B043D5
:101100004F07FF0E1E69BE403043CF0802F1200694
:1011100046F8270010684F000326BE40B0431E79F2
:1011200006F003064F00BE40304310605E6806F4D0
:101130004036002E1DD000BF00260096414E366876
:1011400046F480463F4F3E603E46366806F4804691
:10115000009600BF00BF3C4E8F0856F827008E0750
:10116000370F0F26BE40B043384EB24202D10026A0
:101170002EE061E0364EB24201D1012628E0354E24
:10118000B24201D1022623E0334EB24201D10326FE
:101190001EE0324EB24201D1042619E0304EB24276
:1011A00001D1052614E02F4EB24201D106260FE0F0
:1011B0002D4EB24201D107260AE02C4EB24201D197
:1011C000082605E02A4EB24201D1092600E00A268F
:1011D0008F073F0FBE4030431B4E8F0846F8270055
:1011E000244E3068A0435E6806F4801606B12043A2
:1011F000204E3060361D3068A0435E6806F400164D
:1012000006B120431B4E361D30601A4E361F306823
:10121000A0435E6806F4003606B12043154E361F23
:101220003060361F3068A0435E6806F4803606B131
:101230002043104E083E3060491C1029FFF41CAFBB
:10124000F8BD000044380240083801400000024068
:101250000004024000080240000C0240001002405E
:101260000014024000180240001C0240002002400E
:1012700000240240083C0140024613690B400BB1B8
:10128000012000E0002070470AB1816101E00B04F9
:101290008361704701480068704700001800002013
:1012A0000348006803490978084401490860704709
:1012B000180000202000002010B50D48006840F400
:1012C00000700B4908600846006840F480600860C0
:1012D0000846006840F480700860032000F0A6F81B
:1012E0000F2000F007F800F02BF8002010BD0000E0
:1012F000003C024070B504460E4800784FF47A7105
:10130000B1FBF0F00C490968B1FBF0F5284600F09C
:101310002FFC08B1012070BD102C07D200222146FD
:10132000501E00F045F80548046001E00120F2E796
:101330000020F0E720000020240000201C000020F6
:1013400008B500BF002000900E48006840F48040BF
:101350000C4908600846006800F48040009000BF17
:1013600000BF00BF00200090081F006840F08050C0
:10137000091F08600846006800F08050009000BF18
:1013800000BF08BD443802400146084600280DDB76
:1013900000BF00BF00F01F0301229A4043099B00D9
:1013A00003F1E023C3F8002100BF00BF00BF704776
:1013B0002DE9F05F80460D461646002702F0C2FB7D
:1013C000074639462A46334601F00700C0F1070AAE
:1013D000BAF1040F02D94FF0040A01E0C0F1070A84
:1013E000D14600F1040ABAF1070F02D24FF0000A09
:1013F00001E0A0F1030AD4464FF0010A0AFA09FA03
:10140000AAF1010A0AEA020A0AFA0CFA4FF0010BE1
:101410000BFA0CFBABF1010B0BEA030B4AEA0B04D2
:101420002146404602F096FBBDE8F09F00BF00F069
:101430000702064B19684FF6FF031940044B0B4394
:1014400043EA0221014B196000BF70470CED00E038
:101450000000FA0570B504460D460CB9012070BDB8
:101460005848006800F00F00A84209D255490D7095
:101470000846006800F00F00A84201D00120EEE706
:10148000207800F0020002281DD1207800F004002E
:10149000042805D14C48006840F4E0504A490860EF
:1014A000207800F00800082805D14748006840F47B
:1014B0006040454908604448006820F0F000A16899
:1014C000084341490860207800F00100A8B3606833
:1014D000012807D13C4808380068C0F34040B8B93B
:1014E0000120BCE76068022802D06068032807D1A9
:1014F000354808380068C0F3406048B90120AEE7BD
:10150000314808380068C0F3400008B90120A6E758
:101510002D48006820F00300616808432A490860EC
:10152000FFF7B8FE064609E0FFF7B4FE801B41F264
:101530008831884202D9032091E707E022480068F9
:1015400000F00C006168B0EB810FEDD11D48006820
:1015500000F00F00A84209D91A490D70084600682A
:1015600000F00F00A84201D0012078E7207800F0B9
:101570000400042807D11448006820F4E050E16812
:10158000084311490860207800F00800082808D1B5
:101590000D48006820F46040216940EAC1000A4912
:1015A000086000F03FF808490968C1F30311074AD1
:1015B000515CC8400649086006480068FFF79AFE7B
:1015C00000204CE7003C024008380240865A0008E0
:1015D000240000201C000020014800687047000023
:1015E0002400002000B5FFF7F7FF04490968C1F3A4
:1015F0008221034A515CC84000BD00000838024007
:10160000965A000800B5FFF7E7FF04490968C1F3DF
:101610004231034A515CC84000BD00000838024016
:10162000965A00082DE9F047002400250026A1461F
:101630002548006800F00C0020B1042805D00828D7
:101640003AD105E0DFF8849039E0DFF8849036E0A5
:101650001D48001F006800F03F041B48001F006881
:1016600000F4800078B11A481749091F0968C1F3CE
:101670008811A0FB01700146224600233846FEF780
:1016800005FE05460EE011480F49091F0968C1F320
:101690008811A0FB01700146224600233846FEF760
:1016A000F5FD05460848001F0068C0F30140401CD6
:1016B0004600B5FBF6F902E0DFF8109000BF00BF6E
:1016C0004846BDE8F0870000083802400024F400D6
:1016D000001BB700F8B504460CB90120F8BD20780E
:1016E00000F00100002874D0F948006800F00C00F8
:1016F00004280DD0F648006800F00C00082813D12B
:10170000F348001F006800F48000B0F5800F0BD193
:10171000EF4808380068C0F34040002859D060689E
:10172000002856D10120D9E700BF6068B0F5803F9E
:1017300008D1E7480838006840F48030E4490839A7
:1017400008601EE06068B0F5A02F0DD1E0480838B1
:10175000006840F48020DE490839086008460068C7
:1017600040F4803008600CE0D9480838006820F464
:101770008030D749083908600846006820F4802086
:10178000086000BF606890B1FFF784FD054606E081
:10179000FFF780FD401B642801D903209EE7CC4859
:1017A00008380068C0F340400028F1D011E0FFF78E
:1017B00071FD054606E0FFF76DFD401B642801D969
:1017C00003208BE7C24808380068C0F34040002877
:1017D000F1D1207800F0020002285FD1BC480068F7
:1017E00000F00C0058B1BA48006800F00C0008285E
:1017F0001CD1B748001F006800F48000B0B9B4489D
:1018000008380068C0F3400020B1E068012801D02A
:10181000012063E7AE480838006820F0F80021692D
:1018200040EAC100AA490839086037E0E06800B31F
:101830000120A8490860FFF72DFD054606E0FFF7E7
:1018400029FD401B022801D9032047E7A04808389A
:101850000068C0F340000028F1D09D4808380068B7
:1018600020F0F800216940EAC10099490839086070
:1018700014E0002097490860FFF70CFD054606E0DC
:10188000FFF708FD401B022801D9032026E79048F6
:1018900008380068C0F340000028F1D1207800F03B
:1018A000080008282CD16069A8B101208A49086085
:1018B000FFF7F0FC054606E0FFF7ECFC401B0228B2
:1018C00001D903200AE782486C300068C0F3400069
:1018D0000028F1D014E000207F490860FFF7DAFC0F
:1018E000054606E0FFF7D6FC401B022801D903207D
:1018F000F4E677486C300068C0F340000028F1D16E
:10190000207800F00400042870D100277048383097
:10191000006800F0805090B900BF002000906C4833
:101920003830006840F08050694938310860084616
:10193000006800F08050009000BF00BF012767489A
:10194000006800F48070B0B96448006840F48070AA
:1019500062490860FFF79EFC054606E0FFF79AFC27
:10196000401B022801D90320B8E65C48006800F457
:1019700080700028F2D000BFA068012808D1544828
:101980006830006840F001005149683108601DE08E
:10199000A06805280DD14E486830006840F004006A
:1019A0004B49683108600846006840F00100086053
:1019B0000CE047486830006820F001004449683175
:1019C00008600846006820F00400086000BFA068B6
:1019D000A8B1FFF75FFC054609E0FFF75BFC401B81
:1019E00041F28831884202D9032077E626E0384860
:1019F00068300068C0F340000028EED013E0FFF725
:101A000049FC054608E0FFF745FC401B41F28831E0
:101A1000884201D9032061E62D4868300068C0F390
:101A200040000028EFD1012F07D129483830006845
:101A300020F0805026493831086000BFA069002896
:101A400045D02348006800F00C0008285DD0A0694C
:101A5000022845D100201F490866FFF71BFC0546F8
:101A600006E0FFF717FC401B022801D9032035E6EA
:101A7000174808380068C0F340600028F1D1D4E965
:101A800007010843616A40EA81110122A06AC2EBA2
:101A9000500041EA00412C20005D41EA00600C4901
:101AA000091F086001200B490866FFF7F3FB054694
:101AB00006E0FFF7EFFB401B022801D903200DE6EB
:101AC000034808380068C0F340600028F1D049E0BE
:101AD0000838024000004742800E47420070004034
:101AE000002021490866FFF7D5FB054606E0FFF711
:101AF000D1FB401B022801D90320EFE51B480068F9
:101B0000C0F340600028F2D12CE0A069012800D188
:101B1000E4E51648001D0668A069012820D006F4F7
:101B20008001E06981421BD106F03F01206A8142B9
:101B300016D147F6C0703040616AB0EB811F0FD1FB
:101B400006F440310122A06AC2EB5000B1EB004F15
:101B500006D106F070612C20005DB1EB006F01D062
:101B60000120BBE50020B9E50000474200380240F3
:101B700070B504462546681EB0F1807F01D3012070
:101B80000FE0681E4FF0E02148610F214FF0FF3059
:101B900001F0E0FF00204FF0E0218861072008619C
:101BA000002070BD7047704730B502460B4600BF3D
:101BB00092F83C00012801D1022030BD012082F8BA
:101BC0003C0000BF022082F83D00106844681068A5
:101BD000816824F070041868044310684460184D4C
:101BE0001068A8421BD01068B0F1804F17D0154D77
:101BF0001068A84213D0144D1068A8420FD0134D9E
:101C00001068A8420BD0124D1068A84207D0114DA1
:101C10001068A84203D0104D1068A84205D121F0E9
:101C200080015868014310688160012082F83D00FE
:101C300000BF002082F83C0000BF00BFBDE70000ED
:101C4000000001400004004000080040000C00407B
:101C500000040140004001400018004010B5044657
:101C60000CB9012010BD94F83D0028B9002084F87B
:101C70003C00204600F026F8022084F83D00211D9B
:101C8000206801F003FC012084F8460000BF84F8BE
:101C90003E0001213F2001554020015541200155C2
:101CA00000BF00BF012084F84200432001554420BA
:101CB00001554520015500BF012084F83D0000205A
:101CC000D0E7000038B504462068B0F1804F17D146
:101CD00000BF002000900B48006840F00100094957
:101CE00008600846006800F00100009000BF00BFD7
:101CF000002201211C20FFF75BFB1C20FFF744FBA7
:101D000038BD000040380240014691F83D000128EE
:101D100001D001207047022081F83D000868C068AA
:101D200040F001000B68D8601A4B086898421BD03D
:101D30000868B0F1804F17D0174B0868984213D04D
:101D4000164B086898420FD0154B086898420BD084
:101D5000144B0868984207D0134B0868984203D088
:101D6000124B086898420CD10868806800F007029E
:101D7000062A0CD00868006840F001000B68186063
:101D800005E00868006840F001000B68186000205A
:101D9000C0E70000000001400004004000080040CF
:101DA000000C0040000401400040014000180040C9
:101DB0002DE9F04104460D46002700BF94F83C0091
:101DC000012802D10220BDE8F081012084F83C0006
:101DD00000BF022084F83D002068866826F0770660
:101DE00026F47F46206886602868502833D00CDCB3
:101DF000202850D004DC00284BD0102851D149E0D5
:101E0000302849D040284CD139E060282DD07028A6
:101E100007D0B0F5805F03D0B0F5005F41D10DE091
:101E200041E0D5E902136A68206801F09FFB206851
:101E3000866846F077062068866034E0D5E90213AC
:101E40006A68206801F092FB2068806840F4804056
:101E50002168886027E0EA686968206801F09AFBD9
:101E60005021206801F08DFB1DE0EA686968206858
:101E700001F0A3FB6021206801F083FB13E0EA6816
:101E80006968206801F086FB4021206801F079FB39
:101E900009E000BF00BF00BF2968206801F071FBA6
:101EA00001E0012700BF00BF012084F83D0000BF12
:101EB000002084F83C0000BF384684E7704770B5C6
:101EC00004462068C5682068066906F002000228FA
:101ED00019D105F00200022815D1401F21680861C0
:101EE000012020772068806900F0030018B12046A7
:101EF000FFF7E4FF05E0204600F097F8204600F0E9
:101F000095F80020207706F00400042819D105F088
:101F10000400042815D1C0432168086102202077FD
:101F20002068806900F4407018B12046FFF7C6FFB2
:101F300005E0204600F079F8204600F077F8002010
:101F4000207706F00800082819D105F008000828B5
:101F500015D1C04321680861042020772068C0693A
:101F600000F0030018B12046FFF7A8FF05E0204667
:101F700000F05BF8204600F059F80020207706F0CA
:101F80001000102819D105F01000102815D1C043F9
:101F900021680861082020772068C06900F440703B
:101FA00018B12046FFF78AFF05E0204600F03DF813
:101FB000204600F03BF80020207706F0010048B1F1
:101FC00005F0010030B16FF0010021680861204682
:101FD00000F02EF806F08000802809D105F080007E
:101FE000802805D1C043216808612046FFF7DAFD4B
:101FF00006F04000402809D105F04000402805D1F6
:10200000C04321680861204600F068F806F020000F
:10201000202809D105F02000202805D1C0432168DF
:1020200008612046FFF7BFFD70BD70477047000094
:1020300070B505462648854248D1002422E025484F
:1020400000EB840090ED000A234800EB841080ED43
:10205000000AE0B202F006F90646B6F9021001EEF7
:10206000101AB8EEC11AF0EE410A1B4901EB8411B7
:1020700091ED001AB0EE410A174901EB841003F00C
:1020800041FC641C042CDADB134C94ED3E0ABDEEDB
:10209000C00A10EE104A23B20F4C94ED2E0ABDEE8A
:1020A000C00A10EE104A22B20B4C94ED1E0ABDEE8F
:1020B000C00A10EE104A21B2074C94ED0E0ABDEE94
:1020C000C00A10EE104A20B2FEF7D4F970BD00002D
:1020D0002C010020340300201004002070477047BA
:1020E000704700002DE9F84F044620680568206815
:1020F000C668206847694FF00009CA4605F00F0915
:10210000B9F1000F0AD105F0200038B106F0200027
:1021100020B1204601F0C5FABDE8F88FB9F1000FF3
:102120007CD007F0010018B906F49070002875D033
:1021300005F0010030B106F4807018B1606C40F019
:102140000100606405F0040030B107F0010018B12F
:10215000606C40F00200606405F0020030B107F0EE
:10216000010018B1606C40F00400606405F00800E4
:1021700048B106F0200010B907F0010018B1606CFA
:1021800040F008006064606C002846D005F0200034
:1021900028B106F0200010B1204601F082FA206834
:1021A0004069C0F3801A606C00F0080010B9BAF101
:1021B000000F2DD0204601F02EFA2068406900F073
:1021C0004000402820D100BF00BF2168143151E8F1
:1021D000001F21F040002168143141E80002002A6C
:1021E000F3D100BFE06B50B17F48E16B0865E06B55
:1021F000FEF711FF88B1E06B016D88470DE02046C6
:10220000FFF76EFF09E009E02046FFF769FF04E0F1
:102210002046FFF765FF002060647DE7206B012802
:1022200078D105F01000002874D006F010000028C6
:10223000FAD000BF0020009020680068009020685D
:102240004068009000BF00BF2068406900F0400077
:10225000402870D1E06B006840681FFA80F8B8F140
:10226000000F58D0A08D404555DDA4F82E80E06BBE
:10227000C069B0F5807F43D000BF00BF21680C313A
:1022800051E8001F21F4807021680C3141E8000200
:10229000002AF3D100BF00BF00BF2168143151E80C
:1022A000001F21F001002168143141E80002002ADA
:1022B000F3D100BF00BF00BF2168143151E8001FF7
:1022C00021F040002168143141E80002002AF3D1D6
:1022D00000BF202084F842000020206300BF00BF20
:1022E00021680C3151E8001F21F0100021680C31E9
:1022F00041E80002002AF3D100BFE06BFEF735FE93
:1023000002206063A08DE28D801A81B22046FFF723
:10231000E6FE0EE052E0A08D40450AD1E06BC069B8
:10232000B0F5807F05D102206063A18D2046FFF7C4
:10233000D6FEF1E6FFE7A08DE18D401A1FFA80F886
:10234000E08DD0B3B8F1000F37D000BF00BF2168D7
:102350000C3151E8001F21F4907021680C3141E8E4
:102360000002002AF3D100BF00BF00BF2168143172
:1023700051E8001F21F001002168143141E80002FA
:10238000002AF3D100BF202084F8420000202063FF
:1023900000BF00BF21680C3151E8001F21F0100080
:1023A00021680C3141E80002002AF3D100BF02206D
:1023B000606341462046FFF792FEADE605F08000DF
:1023C00030B106F0800018B1204601F01FFBA3E6F3
:1023D00005F0400030B106F0400018B1204601F091
:1023E00050F999E600BF97E60536000810B5044697
:1023F0000CB9012010BDA06900B100E000BF94F845
:10240000410028B9002084F84000204600F02AF856
:10241000242084F841002068C06820F4005021681E
:10242000C860204601F0BCF92068006920F49040A3
:10243000216808612068406920F02A00216848610D
:102440002068C06840F400502168C86000206064C3
:10245000202084F8410084F842000020606300BF1F
:10246000C8E7000010B586B00446142101A8FDF7A6
:1024700084FF7D492068884239D100BF0020009048
:102480007A48006840F08040784908600846006853
:1024900000F08040009000BF00BF00BF002000900F
:1024A00072481038006840F0100070491039086018
:1024B0000846006800F01000009000BF00BF4FF415
:1024C000C07001900220029000200390032004902D
:1024D0000820059001A96648FEF7C6FD00220121EB
:1024E0005220FEF765FF5220FEF74EFFB9E061492A
:1024F0002068884238D100BF002000905B48006807
:1025000040F00040594908600846006800F000406B
:10251000009000BF00BF00BF00200090534810385B
:10252000006840F010005149103908600846006802
:1025300000F01000009000BF00BF032001900220B7
:10254000029000200390032004900820059001A928
:102550004748FEF789FD002202215320FEF728FF9D
:102560005320FEF711FF7CE043492068884239D1AF
:1025700000BF002000903D48006840F480203B49A7
:1025800008600846006800F48020009000BF00BF8B
:1025900000BF0020009035481038006840F0080067
:1025A0003249103908600846006800F008000090C1
:1025B00000BF00BF4FF44070019002200290002045
:1025C0000390032004900720059001A92B48FEF7F3
:1025D0004BFD002211462720FEF7EAFE2720FEF7DA
:1025E000D3FE3EE02649206888423AD100BF002051
:1025F00000901E48001D006840F020001B49091D86
:1026000008600846006800F02000009000BF00BF8E
:1026100000BF0020009015481038006840F04000CE
:102620001249103908600846006800F04000009028
:1026300000BF00BF4FF484400190022002900020B0
:102640000390032004900820059001A90D48FEF78F
:102650000BFD002202214720FEF7AAFE4720FEF7CD
:1026600093FE06B010BD00000078004040380240E4
:1026700000100240007C004000480040000C024076
:10268000001401400018024070B504460D4616467D
:1026900094F8420020280BD105B10EB9012070BD7D
:1026A0000020206332462946204601F08FF9F6E7E4
:1026B0000220F4E710B504463548844208D1354875
:1026C000007801F0DBFD012232493148FFF7DCFFE1
:1026D0003148844208D13149087800F07BFA012260
:1026E0002E492D48FFF7D0FF2D48844208D12D49AF
:1026F000087800F06DFC01222A492948FFF7C4FF41
:102700002948844242D12948007870B92848007885
:10271000AA280AD126480178244802780078401C6B
:10272000224B1870234881542BE020480078002861
:1027300024DD1E480078052820DA1D4801781B4852
:1027400002780078401C194B18701A4881541846BA
:102750000078052806D116480078552802D10120B6
:10276000154908701148007805280AD110480078EA
:10277000552806D000200D49087002E000200B49C2
:10278000087001220A490848FFF77EFF10BD0000CB
:1027900074010020140000204C02002015000020CD
:1027A000BC0100201600002004020020CC00002004
:1027B000CD000020C7000020CE0000202DE9F84FFA
:1027C00004460E46174699464FF0000A94F8410019
:1027D000202850D106B117B90120BDE8F88F00209C
:1027E0006064212084F84100FEF754FD8246A784EE
:1027F000E784A068B0F5805F04D1206910B9002596
:10280000B04602E035464FF000081EE05346002275
:1028100080212046CDF8009001F028F920B1202039
:1028200084F841000320D8E745B9B8F80000C0F3A8
:1028300008002168486008F1020803E02878216850
:1028400048606D1CE08C401EE084E08C0028DDD1E7
:102850005346002240212046CDF8009001F006F9B1
:1028600020B1202084F841000320B6E7202084F81E
:1028700041000020B1E70220AFE7704700BFFEE74C
:1028800010B50E480E4908600320486000210C482E
:102890008160C1604FF4102101614FF4001141616A
:1028A0000021017641768176C17601774177FEF786
:1028B00049F908B1FDF707FE10BD000000640040B3
:1028C000DC00002010B50E480E4908600320486067
:1028D00000210C488160C1604FF4102101614FF468
:1028E000001141610021017641768176C176017740
:1028F0004177FEF727F908B1FDF7E5FD10BD0000AF
:10290000006800400401002000B587B0142102A82F
:10291000FDF733FD00BF002001904B48006840F0F8
:102920001000494908600846006800F01000019056
:1029300000BF00BF00BF002001900846006840F0C3
:10294000400008600846006800F04000019000BFA9
:1029500000BF00BF002001900846006840F0010061
:1029600008600846006800F00100019000BF00BF49
:1029700000BF002001900846006840F00800086091
:102980000846006800F00800019000BF00BF00BFCB
:10299000002001900846006840F08000086008466A
:1029A000006800F08000019000BF00BF00BF002061
:1029B00001900846006840F0020008600846006880
:1029C00000F00200019000BF00BF00BF0020019096
:1029D0000846006840F0200008600846006800F0E3
:1029E0002000019000BF00BF0022C9141748FEF765
:1029F0004BFC00224FF480411548FEF745FC4FF494
:102A000070400290002003900120049002A9114818
:102A1000FEF72AFB4FF40060029001200390002093
:102A20000490059002A90948FEF71EFB4FF4804070
:102A300002900120039000200490059002A9044810
:102A4000FEF712FB07B000BD303802400010024014
:102A500000140240000C024000B587B00020039033
:102A6000049005900690019002904FF08040144928
:102A7000086044F29F1048600021114881601821CD
:102A8000C1600021016180218161FFF7E7F808B191
:102A9000FDF719FD4FF48050039003A90848FFF794
:102AA00087F908B1FDF70FFD00200190029001A900
:102AB0000348FFF779F808B1FDF705FD07B000BD41
:102AC0002C01002010B50B480B4908604FF4E13091
:102AD0004860002108488160C16001610C214161AA
:102AE00000218161C161FFF781FC08B1FDF7EBFCBA
:102AF00010BD0000007800407401002010B50B48A4
:102B00000B4908604FF4613048600021084881603B
:102B1000C16001610C21416100218161C161FFF748
:102B200065FC08B1FDF7CFFC10BD0000007C004043
:102B3000BC01002010B50B480B4908604FF4E13090
:102B40004860002108488160C16001610C21416139
:102B500000218161C161FFF749FC08B1FDF7B3FCB9
:102B600010BD0000004800400402002010B50B48D2
:102B70000B4908604FF461304860002108488160CB
:102B8000C16001610C21416100218161C161FFF7D8
:102B90002DFC08B1FDF797FC10BD000000140140AA
:102BA0004C02002000BFFEE700BFFEE770470000B8
:102BB0000021044A1170044A1170044A1170044A39
:102BC00011807047B8000020B9000020BA00002032
:102BD000B400002010B50446ED48007804280BDA54
:102BE000AA2C05D1EA480078401CE949087074E035
:102BF0000020E749087070E0E54800780A2865DAA7
:102C0000E3480078032861DDE1480078001F0628CA
:102C10005AD2DFE800F0031228293B483CB9DC48CF
:102C20000078401CDA490870DA48047004E000209B
:102C3000D7490870D749087047E0022C0DD102200F
:102C4000D5490870D2480078401CD1490870D14855
:102C500000782044CF49087004E00020CC49087077
:102C6000CC49087031E000BF54B9C9480078401C15
:102C7000C7490870C74800782044C649087004E076
:102C80000020C3490870C34908701EE0C34804808F
:102C9000BF480078401CBE490870BE4800782044F8
:102CA000BC49087011E0BD48008800EB0420BB4916
:102CB0000880B7480078401CB5490870B5480078CE
:102CC0002044B449087000E000BF06E0B048007836
:102CD0000A2802D10020B2490870AF4800780228C3
:102CE0007ED1AF4800780028FAD1A9480078092899
:102CF00076DDA7480078BE2873DAA54909780A3935
:102D00000F2291FBF2F302FB1311C8B20F2869D214
:102D1000DFE800F0081A3649697C7D7E9DB0B1B2CB
:102D2000B3D3E6009F49097801EB81019E4A22F85E
:102D30002140984909782144964A117094490978AC
:102D4000491C934A1170EFE09649097801EB810123
:102D5000954A32F8211001EB042109B2914A127808
:102D600002EB8202904B23F822108A490978214411
:102D7000884A117086490978491C854A1170D3E048
:102D80008849097801EB8101874A02EB81014C8077
:102D90008049097821447F4A11707D490978491C8E
:102DA0007B4A1170C0E07F49097801EB81017E4ABE
:102DB00002EB8101498801EB04217A4A127802EB87
:102DC0008202794B03EB82025180724909782144D7
:102DD000704A11706E490978491C6D4A1170A3E060
:102DE000D5E0A3E09FE06F49097801EB81016E4ACD
:102DF00002EB81014C60674909782144654A1170F2
:102E000063490978491C624A11708DE000BF00BF18
:102E1000011FC90004FA01F1624A127802EB820232
:102E2000614B03EB8202526811445E4A127802EB56
:102E3000820203EB82025160564909782144554AC7
:102E4000117053490978491C514A11706CE0554979
:102E5000097801EB8101544A02EB81010C724D4962
:102E6000097821444B4A117049490978491C484A5C
:102E7000117059E000BF00BF00BFA0F10901C900F7
:102E800004FA01F1474A127802EB8202464B03EB47
:102E90008202D2681144434A127802EB820203EBA9
:102EA0008202D1603B49097821443A4A117038497D
:102EB0000978491C364A117036E03A49097801EB25
:102EC0008101394A02EB81010C823249097821449F
:102ED000304A11702E490978491C2D4A117023E09F
:102EE0003049097801EB81012F4A02EB8101098AFF
:102EF00001EB042109B22B4A127802EB82022A4B21
:102F000003EB82021182234909782144214A11707E
:102F10001F490978491C1E4A117022490978491C29
:102F2000204A117000E000BF00BF00BF18480078C1
:102F3000BF280EDB16480078C2280ADC1548007846
:102F400020441449087012480078401C1049087049
:102F500014E00F480078C32810D10E48007884424E
:102F600001D101F02FF900200A49087008490870C2
:102F700001200B49087000200A49087004480078B5
:102F8000BE2804D102480078401C0149087010BDD9
:102F9000B8000020B9000020BB000020BC000020C9
:102FA000BE000020BA000020040700200021044ACF
:102FB0001170044A1170044A1170044A118070475C
:102FC000BF000020C0000020C1000020B60000208B
:102FD00010B50446ED48007804280BDAAA2C05D178
:102FE000EA480078401CE949087074E00020E7498D
:102FF000087070E0E54800780A2865DAE348007850
:10300000032861DDE1480078001F06285AD2DFE876
:1030100000F0031228293B483CB9DC480078401CEA
:10302000DA490870DA48047004E00020D7490870D3
:10303000D749087047E0022C0DD10220D54908700D
:10304000D2480078401CD1490870D148007820440B
:10305000CF49087004E00020CC490870CC490870C2
:1030600031E000BF54B9C9480078401CC749087016
:10307000C74800782044C649087004E00020C349CE
:103080000870C34908701EE0C3480480BF48007838
:10309000401CBE490870BE4800782044BC490870F6
:1030A00011E0BD48008800EB0420BB490880B74808
:1030B0000078401CB5490870B54800782044B449F0
:1030C000087000E000BF06E0B04800780A2802D18E
:1030D0000020B2490870AF48007802287ED1AF487E
:1030E00000780028FAD1A9480078092876DDA74899
:1030F0000078BE2873DAA54909780A390F2291FBB6
:10310000F2F302FB1311C8B20F2869D2DFE800F016
:10311000081A3649697C7D7E9DB0B1B2B3D3E60012
:103120009F49097801EB81019E4A22F82140984984
:1031300009782144964A117094490978491C934AA8
:103140001170EFE09649097801EB8101954A32F858
:10315000211001EB042109B2914A127802EB82029C
:10316000904B23F822108A4909782144884A11702B
:1031700086490978491C854A1170D3E08849097845
:1031800001EB8101874A02EB81014C80804909787B
:1031900021447F4A11707D490978491C7B4A11708E
:1031A000C0E07F49097801EB81017E4A02EB810191
:1031B000498801EB04217A4A127802EB8202794BAA
:1031C00003EB82025180724909782144704A1170E0
:1031D0006E490978491C6D4A1170A3E0D5E0A3E05F
:1031E0009FE06F49097801EB81016E4A02EB810192
:1031F0004C60674909782144654A11706349097830
:10320000491C624A11708DE000BF00BF011FC90058
:1032100004FA01F1624A127802EB8202614B03EB7D
:103220008202526811445E4A127802EB820203EB7A
:1032300082025160564909782144554A1170534918
:103240000978491C514A11706CE05549097801EB25
:103250008101544A02EB81010C724D4909782144E5
:103260004B4A117049490978491C484A117059E084
:1032700000BF00BF00BFA0F10901C90004FA01F1BD
:10328000474A127802EB8202464B03EB8202D26875
:103290001144434A127802EB820203EB8202D160AE
:1032A0003B49097821443A4A117038490978491C48
:1032B000364A117036E03A49097801EB8101394A02
:1032C00002EB81010C82324909782144304A1170A5
:1032D0002E490978491C2D4A117023E0304909789C
:1032E00001EB81012F4A02EB8101098A01EB0421E4
:1032F00009B22B4A127802EB82022A4B03EB8202BC
:103300001182234909782144214A11701F49097803
:10331000491C1E4A117022490978491C204A117023
:1033200000E000BF00BF00BF18480078BF280EDBD8
:1033300016480078C2280ADC154800782044144951
:10334000087012480078401C1049087014E00F48BB
:103350000078C32810D10E480078844201D100F0D3
:1033600059FF00200A4908700849087001200B49DC
:10337000087000200A49087004480078BE2804D16B
:1033800002480078401C0149087010BDBF000020B1
:10339000C0000020C2000020C4000020C6000020A1
:1033A000C1000020F4070020704710B5FDF778FF3A
:1033B00010BD000000B593B0302107A8FCF7DDFF79
:1033C000142102A8FCF7D9FF00BF00200190244877
:1033D000006840F08050224908600846006800F00C
:1033E0008050019000BF00BF00BF002001901D4829
:1033F000006840F440401B4908600846006800F43B
:103400004040019000BF00BF0120079000040890D9
:1034100002200D9041050E9106210F91A8211091D7
:10342000022111910421129107A8FEF753F908B166
:10343000FDF749F80F20029002200390002004902D
:103440004FF4A05005904FF480500690052102A83B
:10345000FEF700F808B1FDF736F813B000BD000024
:1034600040380240007000400348006840F470009B
:10347000014908607047000088ED00E010B502487F
:10348000FEF71DFD10BD00002C01002010B50268E4
:103490002B4B98420ED0B0F1804F0BD0294B984265
:1034A00008D0294B984205D0284B984202D0284B8F
:1034B000984203D122F070024B681A43204B984285
:1034C00020D0B0F1804F1DD01E4B98421AD01E4B19
:1034D000984217D01D4B984214D01D4B984211D0E2
:1034E0001C4B98420ED01C4B98420BD01B4B984261
:1034F00008D01B4B984205D01A4B984202D01A4B69
:10350000984203D122F44072CB681A4322F0800320
:103510004C6943EA04028B68C3620B688362084B00
:10352000984202D00A4B984201D10B6903630368A9
:1035300043F00403036001234361026010BD0000F7
:10354000000001400004004000080040000C004062
:103550000004014000400140004401400048014097
:1035600000180040001C00400020004030B50C4610
:10357000816821F47F4142EA032525432943816084
:1035800030BD0A46816821F0700142F007031943FB
:103590008160704730B50B461446026A056A25F013
:1035A00001050562816921F0F00141EA041122F070
:1035B0000A021A438161026230BD30B50B461446DF
:1035C000026A056A25F010050562816921F47041DF
:1035D00041EA043122F0A00242EA03128161026250
:1035E00030BD000010B50248FEF77CFD10BD0000A4
:1035F0007401002010B50248FEF774FD10BD0000F4
:10360000BC01002070B50446A56B0020E885284663
:10361000FEF766FD70BD00BF00BF02680C3252E8C5
:10362000002F22F4907102680C3242E80013002B44
:10363000F3D100BF00BF00BF0268143252E8002F70
:1036400022F001010268143242E80013002BF3D18A
:1036500000BF016B01290ED100BF00BF02680C3210
:1036600052E8002F22F0100102680C3242E80013E9
:10367000002BF3D100BF202180F84210002101630C
:10368000704710B504462068C06820F040002168EB
:10369000C860202084F841002046FFF7EEF80020A3
:1036A00010BDF8B504460025002694F842002228F3
:1036B00073D1A068B0F5805F0BD1206948B9A66AC4
:1036C00020684068C0F308003080A06A801CA062B7
:1036D00014E0A56AA068B0F5805F03D0A06828B99F
:1036E000206918B920684068287004E020684068A4
:1036F00000F07F002870A06A401CA062E08D401E90
:1037000080B2E085002846D12068C06820F0200003
:103710002168C8602068C06820F480702168C86093
:103720002068406920F0010021684861202084F869
:10373000420000206063206B012826D10020206316
:1037400000BF00BF21680C3151E8001F21F01000BC
:1037500021680C3141E80002002AF3D100BF206843
:10376000006800F0100010280AD100BF002000906F
:1037700020680068009020684068009000BF00BF8B
:10378000A18D2046FEF7ABFC02E02046FEF792FF3B
:103790000020F8BD01E00020FBE70220F9E700006F
:1037A0002DE9F84F04462068006920F44050E16894
:1037B0000843216808612169A068084361690843DA
:1037C000E169084300902068C06849F20C618843B1
:1037D000009908432168C8602068406920F440705F
:1037E000A16908432168486176492068884203D06E
:1037F00075492068884203D1FDF704FF814602E045
:10380000FDF7F0FE8146E069B0F5004F6CD1022073
:103810006168A0FB015003461920A9FB0070014616
:103820002A463846FCF732FD6421B0FBF1F04FEA3E
:10383000001A02206168A0FB01510B461920A9FB68
:1038400000712A463846FCF721FD83460220616854
:10385000A0FB015003461920A9FB00712A463846F7
:10386000FCF714FD6421B0FBF1F000EBC00101EBAB
:103870000010ABEB8000322101EBC0006421B0FBF3
:10388000F1F000F0F8000AEB400A02206168A0FBAA
:10389000015003461920A9FB007001462A4638460C
:1038A000FCF7F4FC834602206168A0FB015003464C
:1038B0001920A9FB00712A463846FCF7E7FC642171
:1038C000B0FBF1F000EBC00101EB0010ABEB8000AE
:1038D000322101EBC0006421B0FBF1F000F00700E1
:1038E0005044216888606AE004206168A0FB0150B0
:1038F00003461920A9FB007001462A463846FCF70A
:10390000C5FC824604206168A0FB015003461920D3
:10391000A9FB007001462A463846FCF7B7FC642133
:10392000B0FBF1F000EBC00101EB0010AAEB80004E
:10393000322101EB00106421B0FBF1F000F0F00A3D
:1039400004206168A0FB017003461920A9FB005107
:103950003A462846FCF79AFC6421B0FBF1F00AEBEA
:10396000001A04206168A0FB01510B461920A9FB35
:1039700000712A463846FCF789FC834604206168BA
:10398000A0FB015003461920A9FB007001462A46FE
:103990003846FCF77BFC6421B0FBF1F000EBC00182
:1039A00001EB0010ABEB8000322101EB0010642131
:1039B000B0FBF1F000F00F00504421688860BDE8D2
:1039C000F88F0000001001400014014010B50346BC
:1039D00099629A85DA8500205864222083F8420093
:1039E000186928B11868C06840F480701C68E060ED
:1039F0001868406940F001001C6860611868C06880
:103A000040F020001C68E060002010BD014691F8E5
:103A10004100212828D18868B0F5805F0BD1086962
:103A200048B90A6A1088C0F308000B685860086A31
:103A3000801C086205E00B6A581C086218780B6845
:103A40005860C88C401E80B2C88458B90868C068E5
:103A500020F080000B68D8600868C06840F0400023
:103A60000B68D860002070470220FCE72DE9F8437E
:103A700004460D4617469846089E31E0701C70B308
:103A8000FDF708FCA0EB0800B04200D816B90320EF
:103A9000BDE8F8832068C06800F00400F8B1802D0C
:103AA0001ED0402D1CD020680068C0F3C000B0B10B
:103AB00000BF0020009020680068009020684068E7
:103AC000009000BF00BF2046FFF7A5FD08206064FE
:103AD00000BF002084F8400000BF0120D8E7FFE7C6
:103AE000206800682840A84201D1012000E00020A1
:103AF000B842C3D00020CBE710B50248FEF7F2FA77
:103B000010BD00000402002010B50248FEF7EAFADA
:103B100010BD00004C02002000BFFEE7410008027B
:103B200018BF04200A0E18BF40F001004FF07F427A
:103B300032EA010108BF40F00200012808BF052059
:103B40007047000002480068C0F302207047000080
:103B50000CED00E010B5002804DB0A07130E054A3F
:103B6000135406E00A07140E034A00F00F031B1F4C
:103B7000D45410BD00E400E018ED00E010EE101A7F
:103B800008B5444A6846B2EB410F28D94FF0E640E9
:103B9000B0EB410F94BF00204FF0FF300090009831
:103BA000002861DB60EE000A10F0010F45D010F034
:103BB000020FDFED391A9FED391A00EEE11ADFED41
:103BC000381A40EE811A21EEA01AF0EE400A40EEBB
:103BD000010A08BFF1EE600AB0EE600A08BD314B81
:103BE00021F0004293423CD911F0004FDFED2E0A44
:103BF00020EE201ADFED2D0A19BF31EE601A71EEAA
:103C0000200A31EE201A71EE600ABDEEE01A11EEC4
:103C1000100A9FED271A00F0030000EEC10A9FED85
:103C2000251A009000EEC10A9FED231A00EEC10A8A
:103C30009FED221A00EEC10AB1E79FED211A9FED18
:103C4000210A10F0020F00EE810A9FED1F1A00EE0C
:103C5000801AB7EE000A00EE810A18BFB1EE400AE2
:103C600008BD00F02BF99AE710EE100A4000B0F101
:103C70007F4F3CBFB7EE000A08BD07D14FF00100EF
:103C8000FCF7AAFBBDE8084000F008B9BDE8084011
:103C900000F001B9B61F927E336D4C39DA82083CD0
:103CA000A0AA2ABE490E494683F9223F0000004BD4
:103CB0000000C93F00A0FD390020A2331A61342C56
:103CC000B93AB2BACA9F2A3DDDFFFFBE00B510EE79
:103CD000101A2DED028B81B0524A6846B2EB410FAB
:103CE0002ED94FF0E640B0EB410F94BF00204FF0CB
:103CF000FF3000900098B0EE408A00286ADB10F098
:103D0000010F4BD068EE080A9FED471A9FED470A56
:103D100000EE810A9FED461A10F0020F00EE801AA5
:103D2000B7EE000A00EE810A02BF01B0BDEC028BC3
:103D300000BD00BF01B0B1EE400ABDEC028B00BD7A
:103D40003C4B21F00042934241D911F0004FDFED8E
:103D50003A0A20EE201ADFED390A19BF31EE601A57
:103D600071EE200A31EE201A71EE600ABDEEE01A03
:103D700011EE100A9FED321A00F0030000EEC10AA6
:103D80009FED301A009000EEC10A9FED2F1A00EE51
:103D9000C10A9FED2E1A00EEC10AABE728EE080A11
:103DA0009FED2B1ADFED2B0A10F0020F40EE410AB7
:103DB0009FED291A00EE201A61EE000AB0EE480AC3
:103DC00008EE200AB6D101B0BDEC028B00BD00F0B8
:103DD00075F88FE718EE100A4000B0F17F4F0DD252
:103DE00018EE100AFFF79AFE042808BF00F05EF8EC
:103DF000B0EE480A01B0BDEC028B00BD09D1012034
:103E0000FCF7EAFA01B0BDEC028B5DF804EB00F0C0
:103E100045B801B0B0EE480ABDEC028B5DF804EB8A
:103E200000F039B8B61F927EB93AB2BACA9F2A3D9D
:103E3000DDFFFFBE490E494683F9223F0000004BDB
:103E40000000C93F00A0FD390020A2331A61342CC4
:103E5000336D4C39DA82083CA0AA2ABE10B52DED8C
:103E6000028BB1EEC08A18EE100A20F00040C0F1BB
:103E7000FF40C00F0AD010EE100A20F00040C0F141
:103E8000FF40C00F04BF0120FCF7A6FAB0EE480ABD
:103E9000BDEC028B10BD30EE000A7047DFED020A68
:103EA00080EEA00A70470000000000009FED020AAB
:103EB00020EE000A70470000000000102DE9F0011C
:103EC0004FF07F42B2EB410F9FBF4FF0FF310160D7
:103ED000BDE8F00170474FF0004242EA0123C1F310
:103EE000C752783A551112F01F0C434CCCF1200602
:103EF0007C44C1F3C752A2F178024FEA621204EB8C
:103F0000820254F8254008BFD2E9015612D0556804
:103F100004FA0CF425FA06F73C43976805FA0CF509
:103F200027FA06F8D26807FA0CFCF24045EA0805C1
:103F30004CEA0206A4FB034CA5FB0352A6FB036359
:103F40001D449D4234BF012600261319334416B187
:103F5000934202D903E0934201D2012200E0002201
:103F6000624402F1200C9206DC0C42EA443200EE7C
:103F7000102A5B03DFED210AF8EEC01A00EE103ABA
:103F80004FEA9C1C11F0004FB8EE400AC0F800C088
:103F900020EE201A00EE105ADFED190AB8EE400AA2
:103FA00020EE200A71EE810A70EE800A10EE902A4F
:103FB00002F500626FF30B0200EE902A70EEE11A38
:103FC00031EEC11ADFED101A30EE411A9FED0D0AE5
:103FD00020EE800A01EE210A9FED0C1A00EE810A04
:103FE00004BFBDE8F0017047CCF180510160BDE82D
:103FF000F001B1EE400A7047AC1B00000000003633
:104000000000802C22AAFD29DB0FC92F0000C92F38
:1040100000B590F83C1011B99FED3E0A00BD3E4935
:10402000D1ED152AC0ED012AD0ED000AB0EE600AEC
:10403000F0EE620A01F058F880ED020A90ED040AF1
:10404000D0ED020A20EE203A80ED083A90ED070A02
:10405000D0ED020A30EE200A80ED070A90ED070A43
:10406000D0ED0C0AB4EEE00AF1EE10FA04DD90EDAA
:104070000C0A80ED070A10E090ED070AD0ED0C0A5B
:10408000F1EE600AB4EEE00AF1EE10FA05D290ED1E
:104090000C0AB1EE400A80ED070A90ED050AD0ED5A
:1040A000070A20EE204A80ED094A90ED020AD0ED81
:1040B000030A30EE600AD0ED060A60EE203AC0ED49
:1040C0000A3A33EE040A30EE232A90ED0B0AB4EEDE
:1040D000C20AF1EE10FA04D290ED0B0AB0EE402ABB
:1040E0000EE090ED0B0AB1EE400AB4EEC20AF1EE1A
:1040F00010FA05DD90ED0B0AB1EE400AB0EE402A51
:1041000080ED0E2A90ED020A80ED030AB0EE420A1D
:1041100084E7000000000000180300209FED110A52
:1041200080ED000A9FED0F0A80ED040A9FED0D0A55
:1041300080ED050A9FED0B0A80ED060A9FED090A46
:1041400080ED030A9FED070A80ED070A9FED050A3F
:1041500080ED0B0A9FED030A80ED0C0A012180F827
:104160003C1070470000000000B58BB001200990A2
:1041700000200790012008900020019002900390F9
:1041800004900690059001A90C48FCF759FA0B48D9
:10419000FCF7B5FE02210948FCF798F90E200A90B9
:1041A000069001A90648FCF74BFA0548FCF7A7FE64
:1041B00002210348FCF78AF90BB000BDDC000020A7
:1041C0000401002010B50021002200200EE000EBC9
:1041D00080030D4C34F8233033B14B1C99B200EB03
:1041E000800334F923301A44431CD8B20C28EEDB88
:1041F00041B1B2FBF1F3054C238023461B88044CEC
:10420000A4F8723010BD000004070020B4000020A4
:104210001803002010B50021002200200EE000EB62
:1042200080030D4C34F8233033B14B1C99B200EBB2
:10423000800334F923301A44431CD8B20C28EEDB37
:1042400041B1B2FBF1F3054C238023461B88044C9B
:10425000A4F8743010BD0000F4070020B600002060
:1042600018030020014601F0030000EB8000024A21
:1042700002EB4000704700009402002030B5014678
:1042800000232E48007858B9552955D12C482D4C7B
:10429000247801550120294C20702A4C20704BE0D5
:1042A0002648007801280BD1532945D12448254CB4
:1042B000247801550220214C2070224C20703BE0D4
:1042C0001E480078022837D11E4804780078401C28
:1042D0001C4D28701A480155284600780B282BD110
:1042E000002205E01648805C1844C3B2501CC2B2DC
:1042F0000A2AF7DB1248807A984218D11048807950
:104300000F4CE47940EA042000EE100AF8EE400A6F
:104310009FED0D1A80EE810ADFED0C0A20EE200AD7
:104320000B4880ED000A90ED000A01F0D1FA002060
:10433000024C2070034C207030BD0000480000206B
:104340000C03002049000020000000470000344317
:104350004C0000201FB504460DA103C9CDE90201A0
:104360000DA103C9CDE900016423052202A920465D
:10437000FEF724FA3220FCF763FE64230522694627
:104380002046FEF71BFA4FF47A70FCF759FE1FBD6A
:10439000FFAA6988B5000000FFAA00FF0000000026
:1043A000FCF78AFFFFF706F8FEF7AEFAFEF768FAA9
:1043B000FEF788FAFEF7DAFBFEF74EFBFEF782FB0C
:1043C000FEF7B8FBFEF79AFBFFF7CEFE0122FE498F
:1043D000FE48FEF759F90122FD49FE48FEF754F95F
:1043E0000122FD49FD48FEF74FF90122FC49FD4835
:1043F000FEF74AF9FC48FDF787FC00241DE0FB4965
:1044000001EB841001F014FBF84901EB8410DFED9F
:10441000F82A9FEDF82ADFEDF81AB6EE001ADFED64
:10442000F70A9FEDF70A00F089FE9FEDF10AEF48C9
:1044300000EB841080ED000A641C042CDFDBF148E3
:10444000FFF76CFEF048FFF769FE9FEDF02ADFED05
:10445000EA1A9FEDE71ADFEDEE0A9FEDEE0AE94852
:1044600000F036FE9FEDEC2ADFEDE31A9FEDE01A37
:10447000DFEDE70A9FEDE90AE34800F029FEE8488E
:1044800000F06AFBD548FEF793FBD648FEF78EFD99
:104490004FF47A70FCF7D4FD91E24FF47A70FCF798
:1044A000CFFD01221146DFEDDF1ADF4890ED001A43
:1044B000DFEDCF0A9FEDDD0AD94800F073FE0A2038
:1044C000FCF7BEFD01221146DFEDD61AD64890ED6D
:1044D000001ADFEDD70A9FEDC60AD14800F062FE50
:1044E0000A20FCF7ADFD01221146DFEDD21ACE48BD
:1044F00090ED001ADFEDD00A9FEDBD0AC84800F02C
:1045000051FE0A20FCF79CFD01221146DFEDC91A7D
:10451000C54890ED001ADFEDB60A9FEDC80AC04805
:1045200000F040FE0A20FCF78BFD01221146DFED72
:10453000C11ABD4890ED001ADFEDC10A9FEDAC0A2B
:10454000B74800F02FFE0A20FCF77AFD0122114641
:10455000DFEDB81AB44890ED001ADFEDA50A9FED23
:10456000B90AAF4800F01EFE0A20FCF769FD0122DF
:104570001146DFEDB01AAC4890ED001ADFEDB20A3B
:104580009FED9B0AA64800F00DFE0A20FCF758FD9F
:1045900001221146DFEDA71AA34890ED001ADFEDC6
:1045A000940A9FEDAA0A9E4800F0FCFD0A20FCF741
:1045B00047FDDFEDA70A9C4890ED000A984800F0FF
:1045C000E5FBFA20FCF73CFDDFEDA10A964890EDF3
:1045D000000A934800F07CFCFA20FCF731FD012230
:1045E0000021DFED9B1A904890ED001ADFED800A64
:1045F0009FED980A8A4800F0D5FD6420FCF720FD65
:1046000001221146DFED8B1A874890ED001ADFED8D
:10461000780A9FED910A824800F0C4FD0A20FCF759
:104620000FFD8E4890ED000A7D4800F0E9FA4FF446
:10463000FA70FCF705FD01221146DFED7E1A87486E
:1046400090ED001ADFED6A0A9FED850A744800F0CC
:10465000A9FD0A20FCF7F4FCDFED820A7F4890ED0B
:10466000000A6F4800F092FB4FF4FA70FCF7E8FC88
:10467000DFED7C0A794890ED000A694800F028FCDB
:104680004FF4FA70FCF7DCFC01220021DFED751A13
:10469000724890ED001ADFED560A9FED6E0A6048F1
:1046A00000F080FD6420FCF7CBFC00221146DFED1A
:1046B000611A6A4890ED001ADFED4D0A9FED530A2A
:1046C000574800F06FFD0A20FCF7BAFCDFED650AE1
:1046D000624890ED000A524800F058FB4FF4FA701F
:1046E000FCF7AEFCDFED5F0A5C4890ED000A4C4839
:1046F00000F0EEFB4FF4FA70FCF7A2FC012200215F
:10470000DFED4C1A554890ED001ADFED390A9FEDA8
:10471000510A434800F046FD6420FCF791FC012259
:104720001146DFED441A4D4890ED001ADFED300AD6
:104730009FED390A3A4800F035FD0A20FCF780FC6D
:10474000494890ED000A364800F05AFA4FF4FA70E2
:10475000FCF776FC01221146DFED321A424890ED5B
:10476000001ADFED230A9FED410A2D4800F0EAFE12
:104770000A20FCF765FC1748FFF7ECFD0122114603
:10478000DFED2C1A284890ED001ADFED190A9FED95
:10479000380A234800F006FD0A20FCF751FC2F4898
:1047A00090ED000A1E4800F02BFA4FF4FA70FCF767
:1047B00047FC01221146DFED1F1A284890ED001A30
:1047C000DFED0B0A56E00000CD00002004020020BF
:1047D0001400002074010020150000204C0200206D
:1047E00016000020BC0100202C0100201004002035
:1047F00000000000000016440080BB45AE47213F8A
:1048000033332B4190030020D00300200000EB4302
:10481000CDCCCC3D000048430000C84300007042AE
:104820001803002000007A45000000200000D74354
:1048300000004E4400803B450000AA4300201C4479
:10484000000066C300005D440000FA420000FC4224
:1048500000007A440000664300804A440C000020B7
:1048600000008B42000048440400002000A0B9442E
:1048700000C000449FED520A524800F093FC5FEDE7
:104880000C0A514890ED000A4E4800F07FFA4FF4B0
:10489000FA70FCF7D5FB5FED120A4B4890ED000A69
:1048A000484800F015FB4FF4FA70FCF7C9FB0122F1
:1048B00000215FED191A444890ED001A5FED340AAB
:1048C0001FED1C0A3F4800F06DFC6420FCF7B8FBAC
:1048D000012211465FED291A3B4890ED001A5FED69
:1048E0003C0A9FED3A0A374800F05CFC0A20FCF7CE
:1048F000A7FB374890ED000A324800F081F94FF4E9
:10490000FA70FCF79DFB012211465FED361A304824
:1049100090ED001A5FED4A0A9FED2E0A294800F03B
:1049200041FC0A20FCF78CFB5FED370A284890ED2C
:10493000000A244800F02AFA4FF4FA70FCF780FBD2
:104940005FED3D0A224890ED000A1E4800F0C0FAD3
:104950004FF4FA70FCF774FB012200215FED441A5A
:104960001B4890ED001A5FED5E0A1FED460A1548E0
:1049700000F018FC6420FCF763FB012211465FED98
:10498000531A134890ED001A5FED670A9FED120A63
:104990000C4800F007FC0A20FCF752FB01221146EC
:1049A0005FED5C1A0A4890ED001ADFED0C0A1FED6E
:1049B000700A044800F0F6FB0A20FCF741FB6CE5A6
:1049C0000040E143180300200C000020000039C41F
:1049D0000000002000007D430080B1440000E6C3D9
:1049E00000B9704790ED001A90ED010AD0ED020A6F
:1049F000F1EE411A71EEC01A71EEE01AC0ED071A1D
:104A000071EE401A71EEE01AC0ED081A71EE001A4C
:104A100071EEE01AC0ED091AF1EE411A71EE801A3A
:104A200071EEE01AC0ED0A1A00BFDAE72DE9F0478F
:104A30002DED048B04461CB9BDEC048BBDE8F0875A
:104A4000DFED3F8A00234EE0D8B2FFF70BFC804633
:104A5000B8F1000F00D145E0B8F8007004F12C0067
:104A600030F81390A7EB0906B6F5805F02DDA6F5D6
:104A7000005506E016F5805F02DA06F5005500E005
:104A80003546281E01DB014600E04142B1F5805F5A
:104A900000DD27E004F12C0020F8137000EE905A9E
:104AA000B8EEE01ADFED271AC1EE210ADFED261A73
:104AB00080EEA11ADFED250A21EE200AF0EEC00AF1
:104AC00070EEA80AF0EE608A083000EB8300D0EDAB
:104AD000000A70EE800A04F1340000EB8300C0EDA0
:104AE000000A00BF5B1C042BAEDBB1EE000A88EEAF
:104AF000808A94ED140A30EE080A84ED140A94EDCD
:104B0000150ADFED130A20EE200ADFED120A80EE0F
:104B1000209AB0EE490AFFF731F8D4ED120A48EEB8
:104B2000000AC4ED120AB0EE490AFFF7CFF8D4ED3F
:104B3000130A48EE000AC4ED130A00BF7CE7000028
:104B4000000000000000004600001042A438954319
:104B5000560E49400000344300B970479FED1B0AD0
:104B600080ED000A9FED190A80ED010A9FED170AFA
:104B700080ED020A002109E09FED140A00F11C02F9
:104B800002EB810282ED000A4A1CD1B20429F3DB58
:104B90009FED0E0A80ED120A9FED0C0A80ED130ABC
:104BA0009FED0A0A80ED150A9FED080A80ED170AAD
:104BB0009FED060A80ED180A9FED040A80ED190AA0
:104BC0009FED020A80ED1A0A00BFC6E70000000050
:104BD00000B5024602B900BD9FED080A82ED000A49
:104BE0009FED060A82ED010A9FED040A82ED020A9A
:104BF0001046FFF7F5FE00BFEDE7000000000000E3
:104C000010B52DED028B82B00446F0EE408A534879
:104C10000078B8B99FED520A84ED140A9FED500A4E
:104C200084ED120A9FED4E0A84ED130AC4ED1A8A30
:104C3000D4ED1A0AB0EE600A4A4800F08DFA01205D
:104C40004649087084E09FED460A84ED000A9FED16
:104C5000440A84ED010A4348FFF7DAF984ED020AB9
:104C60002046FFF7BDFE94ED1A0AD4ED150A30EE8A
:104C7000600AB0EE408A05E09FED3B0A38EE400A3C
:104C8000B0EE408A9FED390AB4EEC08AF1EE10FA18
:104C9000F2DC05E09FED340A38EE000AB0EE408AFF
:104CA0009FED330AB4EEC08AF1EE10FAF2D3314828
:104CB00090ED150A304880ED000A304890ED000A6A
:104CC0002D4880ED010A274890ED000A2A4880ED22
:104CD000020A64230C2201462948FDF76FFD29A032
:104CE000006801906423042201A92548FDF766FDB0
:104CF000B0EEC80ADFED240AB4EEE00AF1EE10FAD5
:104D000025D82046FFF764FF9FED150A84ED170AAA
:104D10009FED130A84ED180A94ED150A84ED1A0A22
:104D20009FED0F0A84ED190A9FED0D0A84ED000A2C
:104D30009FED0B0A84ED010A9FED090A84ED020A3A
:104D40002046FFF74DFE00200449087001E000BF37
:104D500079E700BF02B0BDEC028B10BD8D000020D2
:104D600000000000D00300200000B44300003443E2
:104D7000000034C318030020D0000020900300205E
:104D80004C0200200000807FCDCC4C3E70B52DED54
:104D9000028B0446B0EE408AF0EE608A002544485B
:104DA0000078D0B99FED430A84ED140A9FED410AC3
:104DB00084ED120A9FED3F0A84ED130A84ED1A8AEE
:104DC000D4ED1A0AB0EE600A3B4800F0C5F93B4842
:104DD000C0ED008A01203649087063E0374890ED45
:104DE000000A84ED000A9FED330A84ED010A32487F
:104DF000FFF70EF984ED020A2046FFF7F1FDFCF7FC
:104E000049FA06462E480068301A322847D32C4803
:104E10000660B4F872001E281EDBB4F87200B0F50C
:104E2000AF7F19DC4FF480512648FCF725FA98B97A
:104E3000681CC5B2022D0FDB002500201C4908703C
:104E40000120214908709FED1B0A1C4880ED000AD3
:104E50002046FFF7BDFE26E0B4F874001E281EDBD6
:104E6000B4F87400B0F5AF7F19DC4FF40051154869
:104E7000FCF702FA98B9681CC5B2022D0FDB0025B9
:104E800000200B4908700120104908709FED090AA5
:104E90000A4880ED000A2046FFF79AFE03E003204F
:104EA000FCF7CEF89AE700BFBDEC028B70BD0000A6
:104EB0007800002000000000900300207C0000200B
:104EC00080000020000C0240500000205100002013
:104ED00070B52DED028B0446F0EE408AB0EE608A8C
:104EE00074480078D0B99FED740A84ED140A9FEDE0
:104EF000720A84ED120A9FED700A84ED130AC4ED64
:104F00001A8AD4ED1A0AB0EE600A6C4800F024F94F
:104F100000206B490870012066490870C9E09FEDC8
:104F2000660A84ED000A6548FFF772F884ED020A0C
:104F3000FCF7B0F9054663480078012860D1624863
:104F40000068281A19283CD35F480560B4F872003D
:104F5000E62817DCB4F87200BE2813DB5848007846
:104F6000401C5749087008460078022829DB204673
:104F7000FFF72EFE00204F49087051490870BDEC24
:104F8000028B70BDB4F87200BE281BDA4C48007862
:104F9000401C4B490870084600780228E6DB0020D8
:104FA00008709FED450A84ED000AB1EE480A84EDD1
:104FB000010A4248FFF72CF884ED020A2046FFF769
:104FC0000FFD73E0B4F87200E6286FDD3C4800780E
:104FD000401C3B49087008460078022866DB002028
:104FE00008709FED350A84ED000A84ED018A33488C
:104FF000FFF70EF884ED020A2046FFF7F1FC55E0BA
:1050000032480078012851D12F480068281A192801
:105010004CD32D480560B4F87400E62815DCB4F8CC
:105020007400BE2811DB26480078401C2449087013
:1050300008460078022839DB2046FFF7C9FD00202A
:105040001C4908701E49087099E7B4F87400BE281E
:1050500015DA1B480078022828DB00201849087060
:105060009FED150A84ED000A84ED018A1348FEF7CE
:10507000CFFF84ED020A2046FFF7B2FC16E0B4F839
:105080007400E62812DD00200D4908709FED0A0A21
:1050900084ED000AB1EE480A84ED010A0748FEF7E4
:1050A000B7FF84ED020A2046FFF79AFC0520FBF7C4
:1050B000C7FF34E7840000200000000090030020B8
:1050C0008C000020500000208800002051000020AB
:1050D00080ED040AC0ED050A80ED061AC0ED0B1A3A
:1050E00080ED0C2A70470000B0EE401A71EE601A95
:1050F000B0EE610A05E0DFED0E1A70EE611AB0EE57
:10510000610ADFED0C1AB4EEE10AF1EE10FAF2DCFE
:1051100005E0DFED071A70EE211AB0EE610ADFED4F
:10512000061AB4EEE10AF1EE10FAF2D3704700006D
:105130000000B44300003443000034C380ED040A8F
:10514000C0ED050A80ED061AC0ED0B1A80ED0C2AA1
:10515000C0ED0D2A7047000005E0DFED0F0A70EE8C
:10516000600AB0EE600ADFED0D0AB4EEE00AF1EE7F
:1051700010FAF2DC05E0DFED080A70EE200AB0EE6E
:10518000600ADFED070AB4EEE00AF1EE10FAF2D998
:1051900080ED000A704700000000B4430000344373
:1051A000000034C370B52DED0C8B0446F0EE40AA20
:1051B000B0EE60AAB0EE41CAF0EE618A0D46164626
:1051C000B7EE000AC8EE800AB0EE60BACA480078AE
:1051D000002863D1012084F870009FEDC80A84ED97
:1051E000140A9FEDC60A84ED120A9FEDC40A84EDED
:1051F000130AC4ED17AA84ED18AA84ED1ACAD4EDD7
:105200001A0AB0EE600ABE48FFF7A6FFF0EE6ABACF
:10521000F0EE4A9A6BEEAB0A49EEA90AB0EE600ACC
:10522000FEF71CFEB0EE408AB0EE480A84ED190A83
:10523000B0EE480ADFEDB30AB4EEE00AF1EE10FA80
:105240000ADD8BEE880AB04880ED000A89EE880AF4
:10525000AE4880ED000A09E09FEDA80AAA4880ED5B
:10526000000A9FEDA60AA94880ED000AA84890ED23
:10527000000A28EE000AA74880ED000AA64890ED33
:10528000000A28EE000AA54880ED000AFCF702F8A3
:10529000A349086001209849087000BF26E184ED09
:1052A00003BAFBF7F7FF9E490968401A00EE100A9F
:1052B000B8EE400ADFED9B0A80EE201AF0EE41BA0C
:1052C000012D18D188EE8B0AB4EEEB0AF1EE10FA3C
:1052D00011DD2BEE2B0AB0EE409AB4EEE89AF1EE17
:1052E00010FA01DBB0EE689A84ED049ABCEEEB0A8A
:1052F00084ED060A66E0E6B394ED140A38EE400A3F
:105300008648D0ED000AB4EEE00AF1EE10FA57D26A
:105310009FED840AF4EEC08AF1EE10FA21DD9FEDD4
:10532000810AB4EEC09AF1EE10FA0FDDB6EE000A73
:1053300028EE800AD4ED140A78EE600A20EE200AE6
:10534000D0ED000A80EE201AB0EE419A9FED750A6A
:10535000B4EEC09AF1EE10FA03D89FED720AB0EEE7
:10536000409A9FED700AF4EEC08AF1EE10FA24D84C
:1053700000E025E09FED6C0AB4EEC09AF1EE10FA61
:1053800010DD9FED6A0A28EE800AD4ED140A78EE4B
:10539000600A20EE200A6148D0ED000A80EE201A53
:1053A000B0EE419A9FED600AB4EEC09AF1EE10FAA9
:1053B00003D89FED5D0AB0EE409A84ED049A01E0B7
:1053C000B0EE689A504890ED000A29EE000A58485D
:1053D00080ED000A4D4890ED000A29EE000A55487C
:1053E00080ED000A524890ED000A84ED000A514811
:1053F00090ED000A84ED010A4148FEF709FE84EDB4
:10540000020A2046FFF7ECFAF0EE08CAB2EE00DA24
:1054100094ED1A0AD4ED150A70EE609A05E09FED3E
:10542000460A39EEC00AF0EE409A9FED440AF4EEC7
:10543000C09AF1EE10FAF2DC05E09FED3F0A39EE7A
:10544000800AF0EE409A9FED3E0AF4EEC09AF1EE2B
:1054500010FAF2D394ED140AD4ED190A70EEEC0AA6
:10546000B4EEE00AF1EE10FA3CDBB0EEE90AB4EE7D
:10547000CD0AF1EE10FA35D82046FFF7A9FB01203E
:1054800084F870009FED1D0A84ED170A9FED1B0A3A
:1054900084ED180A94ED150A84ED1A0A9FED170A97
:1054A00084ED190A9FED150A84ED000A9FED130A99
:1054B00084ED010A9FED110A84ED020A2046FFF7F0
:1054C0008FFA2046FFF784FB9FED0C0A184880ED09
:1054D000000A9FED0A0A174880ED000A00200649DD
:1054E000087004E00520FBF7ABFD00BFD7E600BF66
:1054F000BDEC0C8B70BD00005300002000000000CC
:10550000900300206F12833A64000020680000209E
:105510005C0000207000002060000020740000206B
:105520006C00002000007A4400004843CDCC4C3F82
:1055300054000020580000200000B4430000344311
:10554000000034C370B52DED0A8B82B00446B0EE76
:1055500040AAF0EE609AF0EE41BAF0EE618A0D4694
:105560001646B7EE000AC8EE800AF0EE60AAC348FD
:10557000007800285FD1012084F870009FEDC00AF8
:1055800084ED140A9FEDBE0A84ED120A9FEDBC0A59
:1055900084ED130A84ED17AAC4ED189AC4ED1ABA63
:1055A000D4ED1A0AB0EE600AB648FFF7D5FDB0EEAA
:1055B0004ACAB0EE69BA6CEE0C0A4BEE0B0AB0EEBA
:1055C000600AFEF74BFCB0EE408A84ED198A9FED2D
:1055D000AE0AB4EEC08AF1EE10FA0ADD8CEE080ACB
:1055E000AA4880ED000A8BEE080AA94880ED000A5F
:1055F00009E09FEDA30AA54880ED000A9FEDA00AEF
:10560000A34880ED000AA34890ED000A28EE000AA6
:10561000A14880ED000AA14890ED000A28EE000A9A
:105620009F4880ED000AFBF735FE9E490860012087
:105630009249087000BF1BE1C4ED03AAFBF72AFEE4
:1056400098490968401A00EE100AB8EE400ADFEDEA
:10565000960A80EE201AB0EE41BA012D18D188EEDC
:10566000AA0AB4EECB0AF1EE10FA11DD2AEE8B0A8B
:10567000B0EE409AB4EEE89AF1EE10FA01DBB0EE2B
:10568000689A84ED049ABCEECB0A84ED060A66E0C3
:10569000E6B394ED140A38EE400A8148D0ED000AD2
:1056A000B4EEE00AF1EE10FA57D29FED7F0AF4EE65
:1056B000C08AF1EE10FA21DD9FED7B0AB4EEC09AAC
:1056C000F1EE10FA0FDD9FED790A28EE800AD4ED95
:1056D000140A78EE600A20EE200AD0ED000A80EE6F
:1056E000201AB0EE419A9FED700AB4EEC09AF1EE26
:1056F00010FA03D89FED6C0AB0EE409A9FED6A0A4B
:10570000F4EEC08AF1EE10FA24D800E025E09FED17
:10571000680AB4EEC09AF1EE10FA10DD9FED630A4C
:1057200028EE800AD4ED140A78EE600A20EE200AF2
:105730005B48D0ED000A80EE201AB0EE419A9FED52
:105740005C0AB4EEC09AF1EE10FA03D89FED580A45
:10575000B0EE409A84ED049A01E0B0EE689A4B48AE
:1057600090ED000A29EE000A524880ED000A4848F0
:1057700090ED000A29EE000A4F4880ED000A4D48DE
:1057800090ED000A84ED000A4B4890ED000A84ED8C
:10579000010A9FED3B0A84ED020A2046FFF720F93B
:1057A000B0EE08CA454890ED150A454880ED000A5C
:1057B000344890ED000A424880ED010A414890EDDE
:1057C000000A3F4880ED020A64230C2201463E484D
:1057D000FCF7F4FF3DA0006801906423042201A9B6
:1057E0003948FCF7EBFF94ED140AD4ED190A70EE7A
:1057F000CC0AB4EEE00AF1EE10FA35DB2046FFF7F2
:10580000E7F9012084F870009FED1D0A84ED170A66
:105810009FED1B0A84ED180A94ED150A84ED1A0A0F
:105820009FED170A84ED190A9FED150A84ED000A11
:105830009FED130A84ED010A9FED110A84ED020A1F
:105840002046FFF7CDF82046FFF7C2F99FED0C0A7E
:10585000184880ED000A9FED0A0A174880ED000AFB
:1058600000200649087004E00520FBF7E9FB00BFB3
:10587000E2E600BF02B0BDEC0A8B70BD8E000020D6
:1058800000000000900300206F12833AA000002067
:10589000A400002098000020AC0000209C00002004
:1058A000B0000020A800002000007A44CDCC4C3F7E
:1058B00000004843900000209400002018030020BE
:1058C000D0000020D00300204C0200200000807F88
:1058D000DFED090AB4EEE00AF1EE10FA06DBDFEDC7
:1058E000070A70EE600AB0EE600A00E000BF0448EC
:1058F00080ED150A70470000000034430000B443F7
:105900001803002090F83C1021B99FED481A80ED53
:105910000E1A704780ED000AC0ED010A90ED001AE2
:10592000D0ED011A31EE611A80ED021A90ED021AE3
:10593000B0EEC11AD0ED0D1AB4EEE11AF1EE10FA84
:1059400000D2E6E790ED041AD0ED021A21EE211AFA
:1059500080ED081A90ED071AD0ED021A31EE211AE7
:1059600080ED071A90ED071AD0ED0C1AB4EEE11A8B
:10597000F1EE10FA04DD90ED0C1A80ED071A10E03C
:1059800090ED071AD0ED0C1AF1EE611AB4EEE11A9F
:10599000F1EE10FA05D290ED0C1AB1EE411A80ED3D
:1059A000071A90ED051AD0ED071A21EE211A80EDA5
:1059B000091A90ED021AD0ED031A31EE611AD0EDFA
:1059C000061A21EE211A80ED0A1A90ED081AD0ED80
:1059D000091A31EE211AD0ED0A1A31EE211A80EDA2
:1059E0000E1A90ED0E1AD0ED0B1AB4EEE11AF1EE8C
:1059F00010FA04DD90ED0B1A80ED0E1A10E090ED18
:105A00000E1AD0ED0B1AF1EE611AB4EEE11AF1EEB6
:105A100010FA05D290ED0B1AB1EE411A80ED0E1A74
:105A200090ED021A80ED031A00BF72E7000000003B
:105A30009FED110A80ED000A9FED0F0A80ED040A28
:105A40009FED0D0A80ED050A9FED0B0A80ED060A19
:105A50009FED090A80ED030A9FED070A80ED070A12
:105A60009FED050A80ED0B0A9FED030A80ED0C0AFD
:105A7000012180F83C107047000000004FF040709A
:105A8000E1EE100A70470000000000000000010273
:105A900003040607080900000000010203040000D7
:105AA000000000006E83F9A22915444ED15727FC4F
:105AB000C0DD34F5999562DB4190433CAB6351FE08
:105AC000E05A000800000020D0000000E8010008B3
:105AD000B05B0008D0000020780E0000040200082F
