:100000000C9428030C9450030C9450030C94D712B6
:100010000C94D7120C94D7120C9450030C945003E8
:100020000C9450030C9450030C9450030C941B122A
:100030000C9450030C9450030C9450030C945003F4
:100040000C9479110C9450030C94E9110C94C31185
:100050000C9450030C9450030C9450030C945003D4
:100060000C944F130C945003E5B7B2E58F91E980DF
:1000700081E588B04153522050726F3A2000CEBCC7
:100080007300C2B020E286922050756C73653A20EE
:1000900000536572766F3237303A20002900C2B0C3
:1000A0002028E88489E586B23A2000C2B020E286A2
:1000B000922000C2B020003A2000E9809AE98193A2
:1000C00020002900C2B02028E88489E586B23A20C1
:1000D000003A20E8AEBEE7BDAEE7BB9DE5AFB9E8AC
:1000E000A792E5BAA62000E9809AE9819320004E04
:1000F0006F00596573004E6F005965730053656E4C
:10010000736F7220322072656164793A2000536502
:100110006E736F7220312072656164793A2000E756
:10012000B3BBE7BB9FE5B0B1E7BBAA202D20E7AD8D
:1001300089E5BE85E68C87E4BBA42E2E2E00E5BCA7
:1001400080E5A78BE887AAE58AA8E9A29CE889B29E
:10015000E698A0E5B0842E2E2E00E4B8A4E4B8AA58
:10016000474D3635E6A8A1E59D97E5B0B1E7BBAAB6
:100170000050434139363835E5B0B1E7BBAA0050ED
:10018000434139363835E5889DE5A78BE58C96E502
:10019000A4B1E8B4A52100E9A29CE889B2E4BCA01E
:1001A000E6849FE599A8E5B0B1E7BBAA00E9A29C67
:1001B000E889B2E4BCA0E6849FE599A8E5889DE5BE
:1001C000A78BE58C96E5A4B1E8B4A52100E6ADA324
:1001D000E59CA8E5889DE5A78BE58C9654434139BD
:1001E000353438412E2E2E0037E3808138E380816C
:1001F00039E58FB7E888B5E69CBAE5889DE5A78B19
:10020000E58C96E5AE8CE6889000E4BCA0E6849F81
:10021000E599A8E888B5E69CBAE5889DE5A78BE551
:100220008C96E5AE8CE6889000493243E680BBE7C9
:10023000BABFE5889DE5A78BE58C96E5AE8CE68890
:10024000900020666F72206368616E6E656C20009E
:1002500053656E736F7220322064657465637465D4
:1002600064200020666F72206368616E6E656C208A
:100270000053656E736F722031206465746563741A
:10028000656420000A4D6F76696E6720746F206187
:100290006E676C653A20003D3D3D3D3D3D3D3D3D39
:1002A0003D3D3D3D3D3D3D3D3D3D3D3D3D3D3D3D7E
:1002B0003D3D3D0020003A20002020000A436F6CA5
:1002C0006F7220E28692204368616E6E656C733AAD
:1002D000003A200020204368616E6E656C20004368
:1002E00068616E6E656C20E2869220436F6C6F725F
:1002F0003A000A3D3D3D20436F6C6F722D436861AB
:100300006E6E656C204D617070696E67203D3D3D7D
:1003100000E99499E8AFAF3A20E69CAAE5AE8CE6F6
:100320008890E9A29CE889B2E698A0E5B084210013
:10033000E5B08FE79083E5B7B2E9878AE694BE2CF3
:10034000E7AD89E5BE8535E7A792E5908EE5A48DFA
:10035000E4BD8D2E2E2E00E58FB3E4BEA7E4BA8C4B
:10036000E7BBB4E7A081E695B0E68DAE3A2000E6A3
:10037000938DE4BD9CE5AE8CE688902CE8BF94E5B7
:100380009B9EE7A9BAE997B2E78AB6E68081003575
:10039000E7A792E5B7B2E588B02CE6ADA3E59CA847
:1003A000E5A48DE4BD8DE888B5E69CBA2E2E2E001E
:1003B000E6ADA3E59CA8E694BEE4B88BE58FB3E474
:1003C000BEA7E888B5E69CBA2E2E2E00E99499E8DF
:1003D000AFAF3A20E69CAAE5AE8CE68890E9A29CF5
:1003E000E889B2E698A0E5B0842100E5B08FE790F7
:1003F00083E5B7B2E9878AE694BE2CE7AD89E5BE0E
:100400008535E7A792E5908EE5A48DE4BD8D2E2E6F
:100410002E00E5B7A6E4BEA7E4BA8CE7BBB4E7A01C
:1004200081E695B0E68DAE3A2000E6938DE4BD9C62
:10043000E5AE8CE688902CE8BF94E59B9EE7A9BAD0
:10044000E997B2E78AB6E680810035E7A792E5B77B
:10045000B2E588B02CE6ADA3E59CA8E5A48DE4BD8B
:100460008DE888B5E69CBA2E2E2E00E6ADA3E59C5D
:10047000A8E694BEE4B88BE5B7A6E4BEA7E888B5C5
:10048000E69CBA2E2E2E00E5B7B2E5909153544D5E
:100490003332E58F91E98081E5AE8CE68890E4BF48
:1004A000A1E58FB700E9A29CE889B2E698A0E5B083
:1004B00084E5AE8CE688902100E5BC80E5A78BE85A
:1004C00087AAE58AA8E9A29CE889B2E698A0E5B0E7
:1004D000842E2E2E00E6A0A1E9AA8CE5928CE99448
:1004E00099E8AFAFE68896E995BFE5BAA6E4B88D7E
:1004F000E6ADA3E7A1AE2100E8BF9BE585A5E58FAA
:10050000B3E4BEA7E4BA8CE7BBB4E7A081E8AF864A
:10051000E588ABE6A8A1E5BC8F2E2E2E00E8BF9B98
:10052000E585A5E5B7A6E4BEA7E4BA8CE7BBB4E7CA
:10053000A081E8AF86E588ABE6A8A1E5BC8F2E2EAA
:100540002E00E8BF9BE585A5E9A29CE889B2E69864
:10055000A0E5B084E6A8A1E5BC8F2E2E2E002C20AD
:100560006461746174687265653D002C2064617417
:100570006174776F3D00E694B6E588B0E68C87E459
:10058000BBA43A20646174616F6E653D00E5B8A755
:10059000E99499E8AFAF3A20E5B8A7E5B0BEE4B872
:1005A0008DE6ADA3E7A1AE00E7B3BBE7BB9FE5A433
:1005B00084E4BA8EE7A9BAE997B2E78AB6E6808101
:1005C000202D20E68980E69C89E888B5E69CBAE57E
:1005D000B7B2E5A48DE4BD8D00E4B8B2E58FA3E722
:1005E000BC93E586B2E58CBAE5B7B2E6B885E7A973
:1005F000BA0000000000240027002A0000000008C4
:1006000000020100000304070000000000000000D9
:100610000000000023002600290000000000250043
:1006200028002B000404040404040404020202024F
:1006300002020303030303030102040810204080A5
:100640000102040810200102040810208914341C3F
:1006500011241FBECFEFD8E0DEBFCDBF13E0A0E076
:10066000B1E0E8E9F2E402C005900D92A033B107D1
:10067000D9F725E0A0E3B3E001C01D92A23BB20789
:10068000E1F713E0C7E2D3E004C02197FE010E9426
:10069000361FC632D107C9F70E94EF140C943F21D0
:1006A0000C9400000895089590E0FC01E450FA4F86
:1006B0002491FC01E85CF94F3491FC01EC5DF94FA9
:1006C000E491EE23C9F0222339F0233001F1A8F49C
:1006D000213019F1223029F1F0E0EE0FFF1FE65E24
:1006E000F94FA591B4918FB7F894EC91611126C0A0
:1006F00030953E233C938FBF08952730A9F02830D2
:10070000C9F0243049F7809180008F7D03C080912B
:1007100080008F7780938000DFCF84B58F7784BD92
:10072000DBCF84B58F7DFBCF8091B0008F77809336
:10073000B000D2CF8091B0008F7DF9CF3E2BDACFC1
:10074000CF93DF9390E0FC01E85CF94F24918C5D3E
:10075000994FFC0184918823D1F090E0880F991F74
:10076000FC01EE50FA4FA591B491FC01E65EF94F01
:10077000C591D49161110EC09FB7F8948C91E22F6E
:10078000E0958E238C932881E223E8839FBFDF913D
:10079000CF9108958FB7F894EC91E22BEC938FBF33
:1007A000F6CF0F931F93CF93DF93EC01162F042FF7
:1007B0001B821A8288EE93E0A0E0B0E08C839D83D8
:1007C000AE83BF8385E991E0998388831F8A1E8A5F
:1007D000198E188E1B8E1A8E1D8E1C8E6E8D6E7F3E
:1007E0006D7F6E8F6695617081E06827842F0E940F
:1007F000540361E0802F0E94A003802F90E0FC0151
:10080000E85CF94FE491E88BFC01EC5DF94FE49171
:10081000F0E0EE0FFF1FE65EF94F859194919A8B01
:10082000898B60E0812F0E94A0038E8D81FD04C022
:1008300061E0812F0E9454031C87812F90E0FC010E
:10084000E85CF94FE491ED87FC01EC5DF94FE49130
:10085000F0E0EE0FFF1FE05FF94F859194919F87C5
:100860008E87DF91CF911F910F9108953FB7F89434
:100870008091190490911A04A0911B04B0911C045A
:1008800026B5A89B05C02F3F19F00196A11DB11DEB
:100890003FBFBA2FA92F982F8827BC01CD01620F27
:1008A000711D811D911D42E0660F771F881F991FE2
:1008B0004A95D1F708958F929F92AF92BF92CF92AF
:1008C000DF92EF92FF924B015C010E9436046B01B4
:1008D0007C010E9436046C197D098E099F09683ECF
:1008E000734081059105A8F321E0821A9108A108BF
:1008F000B10888EEC80E83E0D81EE11CF11C8114FB
:100900009104A104B10429F7FF90EF90DF90CF90FC
:10091000BF90AF909F908F9008952FB7F8946091FB
:1009200015047091160480911704909118042FBF3C
:100930000895AF92BF92CF92DF92EF92FF920F9302
:100940001F93CF93DF936C017B018B01040F151F65
:10095000EB015E01AE18BF08C017D10759F06991CD
:10096000D601ED91FC910190F081E02DC601099531
:10097000892B79F7C501DF91CF911F910F91FF90DE
:10098000EF90DF90CF90BF90AF900895FC01538D12
:10099000448D252F30E0842F90E0821B930B541759
:1009A00010F0CF96089501970895FC01918D828DE6
:1009B000981761F0A28DAE0FBF2FB11D5D968C917F
:1009C000928D9F5F9F73928F90E008958FEF9FEFBE
:1009D0000895FC01918D828D981731F0828DE80F7A
:1009E000F11D858D90E008958FEF9FEF0895FC0134
:1009F000918D228D892F90E0805C9F4F821B910901
:100A00008F739927089583E994E00E94F70421E009
:100A1000892B09F420E0822F089580E090E0892B53
:100A200029F00E94030581110C9400000895FC0137
:100A3000A48DA80FB92FB11DA35ABF4F2C91848D3F
:100A400090E001968F739927848FA689B7892C939C
:100A5000A089B1898C91837080648C93938D848DEF
:100A6000981306C00288F389E02D80818F7D8083F2
:100A70000895EF92FF920F931F93CF93DF93EC01B2
:100A800081E0888F9B8D8C8D98131AC0E889F98935
:100A9000808185FF15C09FB7F894EE89FF89608338
:100AA000E889F98980818370806480839FBF81E0B9
:100AB00090E0DF91CF911F910F91FF90EF900895FB
:100AC000F62E0B8D10E00F5F1F4F0F731127E02ED6
:100AD0008C8D8E110CC00FB607FCFACFE889F9890E
:100AE000808185FFF5CFCE010E941705F1CFEB8DF8
:100AF000EC0FFD2FF11DE35AFF4FF0829FB7F894E2
:100B00000B8FEA89FB8980818062CFCF0F931F937F
:100B1000CF93DF938C01D0E0C0E0F801EC0FFD1F14
:100B20006491662341F083E994E00E943905892BA2
:100B300011F02196F2CFCE01DF91CF911F910F914D
:100B40000895CF93DF93EC01888D8823B9F0AA89AB
:100B5000BB89E889F9898C9185FD03C0808186FD78
:100B60000DC00FB607FCF7CF8C9185FFF2CF8081C7
:100B700085FFEDCFCE010E941705E9CFDF91CF9120
:100B80000895DC01EC91EC3090F511968C91119761
:100B900028E830E0281B310987FD3395220F331FE9
:100BA000220F331F6217730784F012968C9128E589
:100BB00032E0281B310987FD3395220F331F220FA6
:100BC000331F621773070CF49B0122503109220F67
:100BD000331F4FB7F8948E2F90E0FC01EE0FFF1FEC
:100BE000E80FF91FE554FC4F328321834FBF08956E
:100BF000CF92DF92EF92FF92CF93DF93EC016032BE
:100C000082E07807CCF5653B710514F064EB70E089
:100C1000898128E830E0281B310987FD3395220FB0
:100C2000331F220F331F6901330FEE08FF088A813B
:100C300028E532E0281B310987FD3395220F331F49
:100C4000220F331F032E000C440B550B2C193D09AA
:100C50004E095F09DB0177FF02C0B0E0A0E00E940F
:100C6000A01D24EB30E040E050E00E94761DC20E53
:100C7000D31EE41EF51EB601CE01DF91CF91FF9089
:100C8000EF90DF90CF900C94C1051F93CF93DF932B
:100C9000EC01162F88818C3008F04EC061E0812F66
:100CA0000E94A0038881282F30E0F901EE0FFF1F7A
:100CB000E20FF31FE554FC4F1F736081607C612BD2
:100CC000608319821A822CE0622F0E94231F829F68
:100CD000B001112430E020E0AB01420F531FFA01B4
:100CE000EE0FFF1FE40FF51FE554FC4F908196FDBA
:100CF00016C02F5F3F4F2C30310571F781110FC0A7
:100D00001092800082E08093810010928500109202
:100D10008400B19A80916F00826080936F00E881B7
:100D20008E2F90E0FC01EE0FFF1FE80FF91FE55436
:100D3000FC4F8081806480838881DF91CF911F91F7
:100D400008952091B7033091B8032817390771F43B
:100D50009091B6038091B503981741F0E091B603E6
:100D6000F0E0EB58FC4F808190E008958FEF9FEF0B
:100D700008950895EF92FF920F931F93CF93DF93FF
:100D8000DC015C96ED90FC905D97E114F10479F440
:100D900081E090E013969C938E93129790E080E010
:100DA000DF91CF911F910F91FF90EF900895519691
:100DB000ED91FC91529750968C915097982F909569
:100DC0000FB75E962C915E97122F127021FD6095E1
:100DD000F8942081112319F1282B2083E701219712
:100DE000F1F728E0462F50E0308160FF1AC0382B21
:100DF0003083E7012197F1F7BA0175956795215086
:100E000089F7112381F08081892380830FBF5C964D
:100E10008D919C910197F1F781E090E0C1CF29235A
:100E2000DCCF3923E5CF9081892BEFCF2091B70319
:100E30003091B8032817390761F48091B5032091E8
:100E4000B60390E0805C9F4F821B91098F739927B6
:100E5000089590E080E008952091B7033091B803A1
:100E600028173907B9F49091B6038091B503981704
:100E700089F0E091B603F0E0EB58FC4F80812091BF
:100E8000B60330E02F5F3F4F2F7333272093B60315
:100E900090E008958FEF9FEF0895E091B703F091F0
:100EA000B803E817F90769F4A389B4899C91858987
:100EB000809589238C931092B8031092B70381E038
:100EC000089580E00895CF93DF93EC018A8D9B8D88
:100ED000892B01F18091B7039091B8038C179D077E
:100EE000C9F0009711F00E944D078E8D8E7F8E8F76
:100EF0001092B5031092B603D093B803C093B70312
:100F0000EB89FC8980819D89892B808381E0DF9139
:100F1000CF91089580E0FBCF20915203260F332715
:100F2000331F21323105ECF420916904FC0190E07B
:100F300080E0243069F082E00895A091520321916D
:100F4000AC014E5C5C4FA40FB52FB11D2C930196E4
:100F5000861798F380915203680F6093520380E0E4
:100F6000089581E008951092690481E080936804F7
:100F70001092430461E082E10E94540361E083E146
:100F80000E945403E9EBF0E080818E7F80838081B2
:100F90008D7F808388E48093B80085E48093BC00D3
:100FA000089510922204109221041092700410925D
:100FB00092040E94B30782E593E09093200480930B
:100FC0001F0483E593E090931E0480931D0408950D
:100FD000CF93DF9391E0909331038823B9F0C091D0
:100FE000B800D091BA008091BC008A7B8093BC008D
:100FF00060E082E10E94540360E083E10E945403B8
:101000000E94B307D093BA00C093B800DF91CF918C
:1010100008958F929F92AF92BF92CF92DF92EF92FC
:10102000FF920F931F93CF93DF93D0919204D1320D
:1010300008F0D7C0182FC09191040E9436046B01AC
:101040007C018091690481116BC082E08093690406
:10105000109368048FEF8093670410926604D09316
:101060006504A1E7B4E0E5E4F4E080E0D81391C0C2
:101070001092440480914404CC0FC82BC0934404C4
:1010800080914304813009F088C0109243040E948B
:1010900036046B017C01809144048093BB008091F5
:1010A0006B0490916C04A0916D04B0916E04892B37
:1010B0008A2B8B2BA1F00E94360400916B041091B7
:1010C0006C0420916D0430916E046C197D098E09B9
:1010D0009F09061717072807390708F442C08091AF
:1010E000BC0083FDD8CF85EC8093BC000E94360401
:1010F0006B017C0180916904823009F450C08091B9
:1011000067048F3F09F46FC080916704803209F44F
:101110006CC080916704803309F469C084E026C004
:1011200080916B0490916C04A0916D04B0916E0459
:10113000892B8A2B8B2B09F484CF0E943604809054
:101140006B0490906C04A0906D04B0906E046C19C8
:101150007D098E099F0986169706A806B90608F02C
:1011600070CF80916A040E94E80785E010927004B5
:101170001092920410926F04DF91CF911F910F9102
:10118000FF90EF90DF90CF90BF90AF909F908F90A7
:1011900008959D9191938F5F69CF85EEA5CF809142
:1011A0006B0490916C04A0916D04B0916E04892B36
:1011B0008A2B8B2B09F49ECF0E94360400916B047E
:1011C00010916C0420916D0430916E046C197D09AE
:1011D0008E099F09061717072807390708F08ACFD5
:1011E000C0CF81E0C3CF80E0C1CF82E0BFCF83E03A
:1011F000BDCF1F93CF93DF93EA01122FDC0111962D
:101200008D919C91DC01ED91FC910280F381E02DA8
:101210000995C817D90729F4812F0E94090891E080
:10122000811190E0892FDF91CF911F910895CF9385
:10123000DF93EC018B818823A1F0888191E090936A
:101240006F0480939104109270041092920481E0D4
:101250000E94090891E0811190E0892FDF91CF91E0
:1012600008950E94D10781E08B83CE010E94170967
:10127000982F8111E2CFF1CF8F929F92AF92BF92C0
:10128000CF92DF92EF92FF920F931F93CF93DF9352
:10129000D82FC62F142F613208F09CC00E9436044C
:1012A0006B017C018091690481116FC081E08093A2
:1012B0006904109368049FEF90936704109266048A
:1012C0009C0F909365048093440480914404DD0F47
:1012D000D82BD093440480914304813009F07CC022
:1012E000109243040E9436046B017C0180914404F7
:1012F0008093BB0080916B0490916C04A0916D046D
:10130000B0916E04892B8A2B8B2BA1F00E9436049E
:1013100000916B0410916C0420916D0430916E0467
:101320006C197D098E099F090617170728073907C9
:1013300008F44CC08091BC0083FDD8CF85EC80932D
:10134000BC000E9436046B017C01809169048130ED
:1013500009F444C0809166048C1710F4C0916604AF
:10136000E5E4F4E0A3E2B4E080E08C1359C08C2FF4
:10137000DF91CF911F910F91FF90EF90DF90CF9071
:10138000BF90AF909F908F90089580916B04909143
:101390006C04A0916D04B0916E04892B8A2B8B2B69
:1013A00009F480CF0E94360480906B0490906C0406
:1013B000A0906D04B0906E046C197D098E099F0990
:1013C00086169706A806B90608F06CCF80916A04C5
:1013D0000E94E807C0E0CBCF85EEB1CF80916B04CF
:1013E00090916C04A0916D04B0916E04892B8A2BAE
:1013F0008B2B09F4AACF0E94360400916B04109144
:101400006C0420916D0430916E046C197D098E0975
:101410009F09061717072807390708F096CFD6CF78
:1014200091919D938F5FA1CFE0912204809121043F
:10143000E81730F4F0E0ED5DFB4F808190E0089517
:101440008FEF9FEF089590912204809121042FEF58
:101450003FEF981748F4E92FF0E0ED5DFB4F208156
:1014600030E09F5F90932204C90108958091210488
:1014700090912204891B990B0895CF92DF92EF92ED
:10148000FF920F931F93CF93DF937C01CB018A01CF
:1014900020916F04222389F0EB016B01C40ED51E4D
:1014A000CC15DD0569F06991D701ED91FC910190B2
:1014B000F081E02DC7010995F3CF642F0E948C07BE
:1014C000C801DF91CF911F910F91FF90EF90DF90B6
:1014D000CF900895CF93DF931F92CDB7DEB7698386
:1014E00020916F042223F9F020919204203258F0C9
:1014F00021E030E0FC013383228390E080E00F9014
:10150000DF91CF91089580917004E82FF0E0EF58BB
:10151000FB4F998190838F5F809370048093920436
:1015200081E090E0ECCF61E0CE0101960E948C0753
:10153000F7CF90E080E008951F93CF93DF9300D022
:1015400000D01F92CDB7DEB7880F880F8A5F8983DE
:101550001A821B826C837D83809148059091490596
:10156000FC012481358125303105E0F0208111E036
:1015700010936F04209391041092700410929204BF
:1015800021E045E050E0BE016F5F7F4F0E94F90807
:1015900081270F900F900F900F900F90DF91CF91B8
:1015A0001F91089581E0F5CFCF93DF9300D0CDB7A1
:1015B000DEB789836A838091480590914905FC01D3
:1015C000248135812230310590F0208131E0309343
:1015D0006F0420939104109270041092920421E001
:1015E00042E050E0BE016F5F7F4F0E94F9080F900C
:1015F0000F90DF91CF9108958F929F92AF92BF92FB
:10160000CF92DF92EF92FF920F931F93CF93DF93CE
:101610001F92CDB7DEB76B017C0120E030E040E8DF
:101620005FE30E94521C87FD97C020E030EC4AE542
:1016300055E4C701B6010E941E1F18160CF493C092
:1016400060914A0570914B0580914C0590914D0534
:101650000E94571C4B015C0120E030E040E855E45B
:10166000C701B6010E94B81C9B01AC01C501B401C1
:101670000E947D1E20E030E040E05FE30E94111EEA
:1016800020E030E040E85FE30E94101E6B017C0127
:1016900020E030E040E450E40E94521C87FD6BC023
:1016A00020E030E04FE753E4C701B6010E941E1F5F
:1016B00018160CF466C0C701B6010E94EF1EB62EC4
:1016C00019820091480510914905D80114968D9111
:1016D0009C911597892B09F45EC08C9191E09093B1
:1016E0006F0480939104109270041092920420E091
:1016F00041E050E0BE016F5F7F4FC8010E94F908D2
:10170000882309F448C0F801E480F58061E0E11421
:10171000F10409F460E0C62ED12C462FD8018C913B
:101720000E943C0910922204809321048C151D0410
:1017300091F590E080E08C159D0550F5F8018181D0
:101740009281DC01ED91FC910284F385E02D0995F5
:10175000898381E090E0EFCFC12CD12C30E8E32EDB
:101760003FE3F32E6DCFC12C20ECD22E2AE5E22EE2
:1017700025E4F22E65CFC12CD12C90E4E92EFE2C6D
:101780009ACFC12CD12C8FE7E82E83E4F82E93CF8B
:10179000EF2809F4B8CF1981612F6F76606180E07E
:1017A0000E94D40A6B2D8EEF0E94D40A612F80E034
:1017B0000E94D40A65E070E080E090E00E945B0443
:1017C000612F606A80E00E94D40A0F90DF91CF9170
:1017D0001F910F91FF90EF90DF90CF90BF90AF904F
:1017E0009F908F900895FC0101900020E9F73197B8
:1017F000AF01481B590BBC0183E994E00C94990498
:10180000CF93DF930E948605EC0183EA91E00E946A
:10181000F30B8C0F9D1FDF91CF9108958F929F92B4
:10182000AF92BF920F931F93CF93DF93CDB7DEB7E5
:10183000A1970FB6F894DEBF0FBECDBF19A24230FC
:1018400008F44AE08E010F5D1F4F842E912CB12CBD
:10185000A12CA50194010E94DF1DE62FB901CA0148
:10186000EA30F4F4E05DD801EE938D01232B242BB4
:10187000252B79F790E080E0109719F0CD010E94B8
:10188000F30BA1960FB6F894DEBF0FBECDBFDF916C
:10189000CF911F910F91BF90AF909F908F9008951F
:1018A000E95CE1CFCF92DF92EF92FF92CF93DF938B
:1018B0006C01990FEE08FF08F7FE19C06DE283E98D
:1018C00094E00E943905EC0166277727CB016C195B
:1018D0007D098E099F094AE00E940E0C8C0F9D1F06
:1018E000DF91CF91FF90EF90DF90CF9008954AE085
:1018F000C701B601DF91CF91FF90EF90DF90CF90BD
:101900000C940E0CCF92DF92EF92FF92CF93DF9365
:10191000EC01CF3081E0D80714F0CEE0D1E0D7FF62
:1019200002C0D0E0C0E020ED37E0DE010E942F1FB2
:101930002EE031E040E050E00E94761D69017A011E
:1019400084EFC80E81E0D81EE11CF11CB6018EE4C4
:1019500095E00E94C10581E990E00E948605CE01D4
:101960000E94520C82E890E00E948605C6010E9407
:10197000520C8EE790E0DF91CF91FF90EF90DF90D7
:10198000CF900C94000C009711F00C94F30B90E0A6
:1019900080E00895CF93DF9300D000D01F92CDB7A1
:1019A000DEB78AEA898383E08A8381E08B838EEACB
:1019B0008C8385E58D8345E050E0BE016F5F7F4FEE
:1019C00083E994E00E94990486EA91E00E94C30CA6
:1019D0004AE061E070E080E090E00E940E0C0F9021
:1019E0000F900F900F900F90DF91CF910895CF93AC
:1019F000DF93682F70E090E080E04AE00E940E0CD8
:101A0000EC0183EA91E00E94F30B8C0F9D1FDF91A4
:101A1000CF910895CF93DF93D0E0C0E0009719F005
:101A20000E94F30BEC0183EA91E00E94F30B8C0F10
:101A30009D1FDF91CF910895CF93DF93C82FD1E001
:101A4000D0936F0480E780939104109270041092F9
:101A5000920481E00E940908882331F08BEB91E029
:101A6000DF91CF910C940A0DD0936F041092700403
:101A70001092920461E070E00C2E01C0660F0A948F
:101A8000EAF789E395E00E946A0A81E00E9409086A
:101A9000882339F08FEC91E00E94C30C8C2F0E94B8
:101AA000F70C64E170E080E090E0DF91CF910C945E
:101AB0005B04EF92FF921F93CF93DF937C0181E051
:101AC0006130710509F480E00E941C0D81E0809373
:101AD0006F0488E480939104109270041092920431
:101AE00060ED89E395E00E946A0A80E00E9409089F
:101AF00041E063E088E40E943C09182F1092220420
:101B000080932104E70186E0E80EF11C8091220415
:101B1000181751F0CE15DF0539F089E395E00E94E2
:101B2000230A89939993F2CF6AE070E080E090E015
:101B3000DF91CF911F91FF90EF900C945B0421E017
:101B4000019709F420E0822F0E941C0D81E0809310
:101B50006F0488E4809391041092700410929204B0
:101B60006AEA89E395E00E946A0A80E00E94090817
:101B700041E061E088E40E943C09109222048093D5
:101B80002104882341F089E395E00E94230A21E0A3
:101B90008636910509F020E0822F089580EA90E0D2
:101BA000909337018093360160EA70E080E395E01E
:101BB0000E94F8058DEE91E00C940A0D8AE390E006
:101BC00090933501809334016AE370E083E395E0FC
:101BD0000E94F80589E092E00C940A0D88E590E0F7
:101BE000909339018093380168E570E086E395E0D1
:101BF0000E94F80582E192E00C940A0DCF93DF93E6
:101C0000FC01448155816081718183E994E00E94E7
:101C10009904EC0183EA91E00E94F30B8C0F9D1F65
:101C2000DF91CF910895CF93DF93FC0144815581DB
:101C30004115510581F0EC016081718181E595E0EC
:101C40000E94990488E690E00E948605CE01DF910B
:101C5000CF910C94FE0DDF91CF910895CF93DF9338
:101C60000E94520CEC0183EA91E00E94F30B8C0F6E
:101C70009D1FDF91CF910895FC0180819181009794
:101C800011F00C94D81F08950F931F93CF93DF93F7
:101C9000EC0188819981009759F02A813B812617B0
:101CA000370730F081E0DF91CF911F910F910895B8
:101CB0008B016F5F7F4F0E946120009759F09983DD
:101CC00088831B830A832C813D81232B59F7FC01D8
:101CD0001082E8CF80E0E7CFEF92FF920F931F933F
:101CE000CF93DF93EC017B018A01BA010E94440E7D
:101CF00028813981811114C02115310519F0C901DC
:101D00000E94D81F198218821D821C821B821A828F
:101D1000CE01DF91CF911F910F91FF90EF90089529
:101D20001D830C83B701C9010E943821F1CF8F9226
:101D30009F92AF92BF92CF92DF92EF92FF920F935A
:101D40001F93CF93DF9300D0CDB7DEB78C016B012B
:101D5000FC0111821082138212821582148250E0DB
:101D600040E065EA71E00E946C0E0E948D044B0118
:101D70005C01C6010E941607892B91F40E948D0414
:101D8000681979098A099B096436710581059105ED
:101D900038F461E070E080E090E00E945B04E9CFFD
:101DA000C6010E941607892B39F1C6010E942C0733
:101DB00089831A82F801E480F580FFEFEF1AFF0AA9
:101DC000B701C8010E94440E882379F0F8012081F0
:101DD000318184819581BE016F5F7F4F820F931F98
:101DE0000E943821F801F582E48262E070E080E030
:101DF00090E00E945B04D4CFC8010F900F90DF9158
:101E0000CF911F910F91FF90EF90DF90CF90BF90F7
:101E1000AF909F908F900895FB01DC0111961C926A
:101E20001E9213961C921E92129715961C921E9249
:101E300014978617970749F06081718161157105C4
:101E400021F0448155810C946C0E089585ED8093AA
:101E5000BC0080916B0490916C04A0916D04B091D2
:101E60006E040796A11DB11D23E0B695A795979521
:101E700087952A95D1F72091BC0024FD03C01092CC
:101E80006904089540916B0450916C0460916D0455
:101E900070916E04452B462B472B69F30097A105E3
:101EA000B10541F02AE22A95F1F700C00197A10996
:101EB000B109E1CF80916A040C94E8072F923F9218
:101EC0004F925F926F927F928F929F92AF92BF924A
:101ED000CF92DF92EF92FF920F931F93CF93DF93F6
:101EE00000D000D000D0CDB7DEB72091060421117C
:101EF0001CC08DE292E026960FB6F894DEBF0FBEAE
:101F0000CDBFDF91CF911F910F91FF90EF90DF90A8
:101F1000CF90BF90AF909F908F907F906F905F9089
:101F20004F903F902F900C940A0DDC0114962D9148
:101F30003C91232B09F47FC17B018C018BE492E05F
:101F40000E94C30CC7010E94520C81E592E00E94DE
:101F5000C30CC8010E94FE0DF801C480D580F12C8D
:101F6000E12C8DE6A82E81E0B82EEC14FD0409F4D6
:101F700044C1D801ED91FC913097B9F4109230032F
:101F8000E0E3F3E08081082E000C990B0E941E21F3
:101F9000EEE5F1E02281281759F03396AE16BF0620
:101FA000C9F7BFEFEB1AFB0AE0CFEE0DFF1DEACF3A
:101FB0008032B9F3BEE5CB2EB1E0DB2EF60190E026
:101FC00080E0328132131BC1FC01EE0FFF1FE80FCE
:101FD000F91FE25AFE4FE080F18010E000E0B70107
:101FE000F601808191810E942F215C01892B09F0EB
:101FF00011C1000F111F000F111FF801E751FC4F15
:1020000080819181D12CC12C8F3F980729F09A8330
:102010008983CC24C394D12C07511C4FD80112962C
:102020008D919C918F3F980709F400C1F601EE0F46
:10203000FF1FEC0FFD1F92838183F60131966F0124
:1020400083E792E00E94C30CC7010E94C30C80E8A2
:1020500092E00E94C30CCE0101969E838D831601EF
:1020600091E0291A3108AD81BE810D911D91BE8389
:10207000AD83C8010E94520CA214B30424F483E976
:1020800092E00E94C30C0031110508F06CC082E0A0
:102090000E941C0D4801880C991CF401E050FF4F70
:1020A000E080F180BFE5EB1AF108E5EBEE16F104F4
:1020B0001CF044EBE42EF12CF7FE02C0F12CE12CD5
:1020C00022EC31E0D7010E942F1F24EB30E040E0EA
:1020D00050E00E94761D29013A01F6E94F0E511C8D
:1020E000611C711C8AEB90E00E948605C8010E9469
:1020F000520C87EB90E00E948605C40180509F4FF0
:102100004C01DC018D919C910E94520C83EB90E07C
:102110000E94860585EA91E00E94C30C81EA9FEF48
:102120000E94520C8BEA90E00E948605C7010E9433
:10213000520C8EE990E00E9486054AE0C301B2018C
:102140000E940E0C8CE990E00E94000CB201802FDE
:102150000E949C0AF401F182E08268EE73E080E064
:1021600090E00E945B0464EF71E080E090E00E94E8
:102170005B0400311105A8F582E00E941C0D87EE7A
:1021800090E00E948605C8010E94520C81ED90E00B
:102190000E9486058AE590E00E94520C84EC90E053
:1021A0000E9486054AE067E771E080E090E00E94C7
:1021B0000E0C82EC90E00E94000C67E771E0802F2B
:1021C0000E949C0A000F111FF801E050FF4F8AE5A2
:1021D00090E09183808364EF71E080E090E00E9462
:1021E0005B04C5010196AA24A394B12C8C159D050E
:1021F0000CF439CF86E992E07ECE20E2DBCE019668
:1022000033968530910509F0DCCEF5E2EF2EF2E051
:10221000FF2EE3CE0F5F1F4FF3E0CF0ED11C053032
:10222000110509F0DCCE89E592E065CEC114D10438
:1022300009F006CFF8CF26960FB6F894DEBF0FBE92
:10224000CDBFDF91CF911F910F91FF90EF90DF9065
:10225000CF90BF90AF909F908F907F906F905F9046
:102260004F903F902F900895CF92DF92EF92FF9280
:102270000F931F93CF93DF936C018B01FB01EE0F44
:10228000FF1FE05EFE4F918380835EE5E52E51E007
:10229000F52ED0E0C0E0B601F701808191810E9467
:1022A0002F21892BF1F4CC0FDD1FFE01E152FC4FF1
:1022B00080819181823091055CF4C80FD91FCC0FC9
:1022C000DD1FC751DC4F19830883019691838083FA
:1022D000DF91CF911F910F91FF90EF90DF90CF9002
:1022E00008952196F3E0EF0EF11CC530D10599F663
:1022F000EFCF1F920F920FB60F9211242F933F939F
:102300008F939F93AF93BF93809115049091160480
:10231000A0911704B09118043091140423E0230F06
:102320002D3758F50196A11DB11D209314048093FB
:10233000150490931604A0931704B0931804809189
:10234000190490911A04A0911B04B0911C040196E9
:10235000A11DB11D8093190490931A04A0931B042E
:10236000B0931C04BF91AF919F918F913F912F919A
:102370000F900FBE0F901F90189526E8230F02961E
:10238000A11DB11DD2CF1F920F920FB60F92112433
:102390002F933F934F935F936F937F938F939F936D
:1023A000AF93BF93EF93FF9383E994E00E941705E7
:1023B000FF91EF91BF91AF919F918F917F916F911D
:1023C0005F914F913F912F910F900FBE0F901F90F3
:1023D00018951F920F920FB60F9211242F938F937F
:1023E0009F93EF93FF93E091A304F091A404808165
:1023F000E091A904F091AA0482FD1BC09081809114
:10240000AC048F5F8F732091AD04821741F0E0918F
:10241000AC04F0E0ED56FB4F958F8093AC04FF9138
:10242000EF919F918F912F910F900FBE0F901F9062
:1024300018958081F4CF1F920F920FB60F9211243E
:102440002F933F934F935F936F937F938F939F93BC
:10245000AF93BF93CF93DF93EF93FF938091B90333
:10246000C091BA03D0E087FF24C01092850010927B
:1024700084008091B9038F5F8093B9038091B90381
:10248000082E000C990B8C179D0724F48091B9033A
:102490008C30C4F180918400909185000496803442
:1024A0009C4908F47AC0809184009091850004963C
:1024B00076C08091B903082E000C990B8C179D07EC
:1024C000C4F6E091B9038E2FEE0F990BFC01EE0FCD
:1024D000FF1FE80FF91FE554FC4F808186FFC9CF2D
:1024E000E091B9038E2FEE0F990BFC01EE0FFF1F49
:1024F000E80FF91FE554FC4F808160E08F730E9464
:102500005403B7CF2091840030918500E091B90346
:102510008E2FEE0F990BFC01EE0FFF1FE80FF91F36
:10252000E554FC4F81819281820F931F9093890023
:1025300080938800E091B9038E2FEE0F990BFC0178
:10254000EE0FFF1FE80FF91FE554FC4F808186FF57
:1025500011C0E091B9038E2FEE0F990BFC01EE0F25
:10256000FF1FE80FF91FE554FC4F808161E08F7376
:102570000E945403FF91EF91DF91CF91BF91AF91F2
:102580009F918F917F916F915F914F913F912F918B
:102590000F900FBE0F901F90189580E49CE99093C8
:1025A0008900809388008FEF8093B903E3CF1F9257
:1025B0000F920FB60F9211242F933F934F935F9377
:1025C0006F937F938F939F93AF93BF93EF93FF93FB
:1025D000E091B703F091B803309749F0A685B7852D
:1025E0008585968D91FF14C09C918923A1F4FF915C
:1025F000EF91BF91AF919F918F917F916F915F917B
:102600004F913F912F910F900FBE0F901F901895F3
:102610009C91892361F7A389B4899C9185898095D0
:1026200089238C93868997890197F1F7608D718D45
:10263000A685B785558538E020E0CB010197F1F7F5
:10264000822F90E095958795282F4C91452309F08E
:102650002068315091F7868D81FD20958091B503DA
:1026600090E001968F7399273091B603381799F04F
:10267000A091B503B0E0AB58BC4F2C938093B50349
:10268000828D938D0197F1F7A389B4898C919589F7
:10269000892B8C93ACCF868D8160868FF1CF1F9272
:1026A0000F920FB60F9211242F933F934F935F9386
:1026B0006F937F938F939F93AF93BF93EF93FF930A
:1026C0008091B900887F803609F44AC0F0F58832DD
:1026D00009F4A7C018F5803109F49BC0B8F4882329
:1026E00009F4F9C0883009F494C0FF91EF91BF91CB
:1026F000AF919F918F917F916F915F914F913F919A
:102700002F910F900FBE0F901F901895883109F4EC
:1027100088C0803251F78093670414C0803409F474
:102720009DC040F48033B9F38833F9F68093670491
:1027300085ECB0C0803509F485C0883509F496C0B1
:10274000883499F60E94260FD0CF883909F48CC0BE
:1027500038F5883729F050F4883611F0803729F69B
:1027600083E0809369041092740357C0883809F499
:102770007BC0803919F0803809F0B7CF809174039D
:10278000803208F071C0E091740381E08E0F809375
:1027900074038091BB00F0E0EC5AFC4F80833DC095
:1027A000803B39F0E0F4803A09F479C0883A09F0C6
:1027B0009CCF84E0809369041092530310925203DB
:1027C000E0911F04F091200409958091520381113A
:1027D0000FC081E0809352031092320309C0803C05
:1027E00009F4A6CF883C09F4A3CF883B09F07DCF3C
:1027F000E091530381E08E0F80935303F0E0EE5C91
:10280000FC4F80818093BB009091530380915203D1
:1028100029C0809144048093BB0085EC8093BC0068
:1028200064CF9091660480916504981758F5E09103
:10283000660481E08E0F80936604F0E0EB5BFB4F53
:102840008081E9CFE091660481E08E0F8093660479
:102850008091BB00F0E0EB5BFB4F808390916604BE
:10286000809165049817C8F285E8D8CFE091660496
:1028700081E08E0F809366048091BB00F0E0EB5BFB
:10288000FB4F80838091680481115CCF81E080934D
:10289000430484EA8093BC001092690426CF85EC3F
:1028A0008093BC001092690480917403803230F4EC
:1028B000E0917403F0E0EC5AFC4F108260917403D5
:1028C00070E0E0911D04F0911E0484E593E0099509
:1028D000109274030ACF1092670434CFFC019091D8
:1028E000BA039C3098F481E0890F8093BA039083F7
:1028F000892F90E0FC01EE0FFF1FE80FF91FE55450
:10290000FC4F88EB9BE09283818308958FEF808357
:102910000895CF93DF93E3E9F4E01382128288EE07
:1029200093E0A0E0B0E084839583A683B78321E79A
:1029300031E03183208325EC30E03587248724EC97
:1029400030E03787268720EC30E0318B208B21EC7C
:1029500030E0338B228B22EC30E0358B248B26EC5D
:1029600030E0378B268B118E128E138E148EC9E3B6
:10297000D5E01B821A828C839D83AE83BF8383E85C
:1029800091E09983888386E395E00E946E1483E347
:1029900095E00E946E1480E395E00E946E14E5E4D9
:1029A000F5E080E48083D283C183148213824BE0FC
:1029B0006AE080E795E00E94D1034DE06CE08FE88B
:1029C00095E00E94D1038EE495E00E946E1445E0EC
:1029D00064E081E595E0DF91CF910C94D103CF9332
:1029E000DF93CDB7DEB72C970FB6F894DEBF0FBEDE
:1029F000CDBF789484B5826084BD84B5816084BD88
:102A000085B5826085BD85B5816085BD80916E008C
:102A1000816080936E0010928100809181008260BD
:102A200080938100809181008160809381008091FA
:102A300080008160809380008091B10084608093E9
:102A4000B1008091B00081608093B00080917A00E5
:102A5000846080937A0080917A00826080937A000B
:102A600080917A00816080937A0080917A008068FA
:102A700080937A001092C100E091A304F091A40425
:102A800082E08083E0919F04F091A0041082E091A5
:102A9000A104F091A20480E180831092AB04E09144
:102AA000A704F091A80486E08083E091A504F0914A
:102AB000A604808180618083E091A504F091A60442
:102AC000808188608083E091A504F091A6048081D4
:102AD00080688083E091A504F091A60480818F7DB9
:102AE000808360ED77E080E090E00E945B040E94CC
:102AF000D10789E292E00E94000C66E070E08EE46B
:102B000095E00E94450690E080E00E94820C64EF10
:102B100071E080E090E00E945B048AE092E00E9415
:102B2000000C67E070E086E395E00E94450668E5EA
:102B300070E086E395E00E94F80588E590E09093C8
:102B400039018093380168EE73E080E090E00E94E4
:102B50005B0484EB92E00E940A0D68E070E083E37E
:102B600095E00E9445066AE370E083E395E00E94E9
:102B7000F8058AE390E0909335018093340168EE84
:102B800073E080E090E00E945B0480ED92E00E94A0
:102B90000A0D69E070E080E395E00E94450660EA76
:102BA00070E080E395E00E94F80580EA90E0909361
:102BB00037018093360168EE73E080E090E00E9478
:102BC0005B0489EE92E00E940A0D88EE91E00E947B
:102BD000000C8DEC91E00E94000C45E0E42EF12CFD
:102BE00010E000E00111E1C581E090E00E949F0D3E
:102BF000082F62E370E080E090E00E945B04111116
:102C0000DBC482E090E00E949F0D182F62E370E029
:102C100080E090E00E945B04002311F01111CFC40A
:102C200064E670E080E090E00E945B0421E0E21A3C
:102C3000F108C1F68EE091E00E94860589EF90E0F0
:102C4000011102C086EF90E00E94000C8DEF90E031
:102C50000E94860582EF90E0111102C08FEE90E095
:102C60000E94000C002309F4A9C0112309F4A6C096
:102C700087E991E00E94000C82E00E941C0D62E353
:102C800070E080E090E00E945B04809148059091A4
:102C90004905009709F097C086E090E00E943C1F2C
:102CA0008C01809146059091470520914505F801DA
:102CB000208392838183138280E290E095838483D2
:102CC00010934905009348050E94D10781E0F8015F
:102CD0008383C8010E941709882309F477C060E83C
:102CE00080E00E94D40A6AE070E080E090E00E94F8
:102CF0005B0480E498E7ADE7B1E080934A059093E8
:102D00004B05A0934C05B0934D0560E070E08AE759
:102D100094E40E94FC0A60E070E088E492E40E947F
:102D2000FC0A81E791E00E94000C80E795E00E9498
:102D3000D91B8FE895E00E94D91B8AE591E00E949B
:102D4000000CAFEDB3E029EE33E0E9EEF3E08FEFF6
:102D50009FEF1D921D92918380839383828334968B
:102D60002A173B07B1F78EE391E00E94000C109206
:102D70000F041092070410921304109212048FE1B2
:102D800091E00E94000C8091120490911304813014
:102D9000910509F43EC1F8F08230910509F4CAC1E9
:102DA000039709F4FAC280E090E0892B61F30E9456
:102DB0000305882341F30E940000E5CF8DEA91E0EE
:102DC0000E94000CFFCF0E94D81F66CF8FE791E0D2
:102DD0000E94000CFFCF80911104811113C083E980
:102DE00094E00E94F704181619062CF483E994E085
:102DF0000E94D504F4CF81E08093110489ED95E021
:102E00000E94000C8091100481110DC00E94EE0DF3
:102E10000E94DE0D0E94CE0D81E08093100488EAAE
:102E200095E00E94000C11E083E994E00E94F70411
:102E30001816190634F583E994E00E94D504E09150
:102E40000F04E11107C08A3A29F410930F0480930C
:102E50000804EACF9FEF9E0F963080F491E09E0F1A
:102E600090930F04F0E0E85FFB4F80839730E1F62A
:102E7000853509F0A7C310930704D6CF10920F042D
:102E8000D3CF80910704882309F48DCF8091080463
:102E90008A3A09F0A2C080910E04853509F09DC0E0
:102EA0009091090400910A0410910B04F0900C0415
:102EB000892F800F8655810F8F0D20910D042813C7
:102EC000A3C0933009F0A0C086E795E00E94860574
:102ED000602F70E090E080E04AE00E940E0C8BE6EC
:102EE00095E00E948605612F70E090E080E04AE066
:102EF0000E940E0C8EE595E00E9486058F2D0E94A3
:102F0000F70CF1E0FF1269C001116CC0111173C020
:102F100082E495E00E94000C68EB7BE080E090E0AA
:102F20000E945B040E94CA0C64E170E080E090E0C3
:102F30000E945B0490E080E00E94820C64EF71E0EC
:102F400080E090E00E945B048EE091E00E94820CA1
:102F500064EF71E080E090E00E945B0490E080E02C
:102F60000E94820C64E670E080E090E00E945B04C6
:102F700010E000E0C8010E94820C68E070E080E090
:102F800090E00E945B040F5F1F4F0F3021E012079B
:102F900089F764E670E080E090E00E945B040EE058
:102FA00011E0C8010E94820C68E070E080E090E0CF
:102FB0000E945B0401501109A0F764E670E080E014
:102FC00090E00E945B0481E090E090931304809372
:102FD0001204109210041092110410920F04109217
:102FE0000704E1CE013039F48DE195E00E94000C38
:102FF00082E090E0EACF113081F788EF94E00E9400
:10300000000C83E090E0E1CF85ED94E00E94000C9D
:10301000E4CF89EB94E00E94000C64EF71E080E063
:1030200090E00E945B0490E080E00E94820C64EFDC
:1030300071E080E090E00E945B0420E4E22E21E059
:10304000F22E3EE5A32E31E0B32EF701008111816F
:1030500082809380C480D58084E892E00E948605B7
:10306000C8010E942E0EC8010E94820C64EF71E01C
:1030700080E090E00E945B0461E070E0CE01019688
:103080000E94590D49815A818B819C812D813E81FD
:10309000493C5105DCF08436910534F42436310581
:1030A0001CF508E912E0A3C287399105ECF00CE9A0
:1030B00012E0243631050CF49AC2893C9105A4F043
:1030C0000EEA12E0293C31057CF091C244365105EC
:1030D0000CF07FC2843691050CF07FC203EA12E047
:1030E000273931050CF083C205E212E080C287392E
:1030F0009105ECF00CE912E0243631050CF4B8C26D
:10310000893C9105A4F00EEA12E0293C31057CF0DF
:10311000AFC2443651050CF09DC2843691050CF0C7
:103120009DC203EA12E0273931050CF0A1C205E285
:1031300012E09EC280910504811174C08BE694E078
:103140000E94000C809134019091350197FF04C0DA
:103150001092350110923401E0903401F090350165
:10316000E7E5EE1AF108F0923501E0923401B7017B
:1031700083E395E00E94F80584EB90E09093FE03D2
:103180008093FD030091FD031091FE030E151F05B2
:1031900094F0B80183E395E00E94F8056AE070E0DE
:1031A00080E090E00E945B040F5F1F4F1093FE03CE
:1031B0000093FD03E7CF82E093E00E940A0D809127
:1031C0003801909139010A97853B910504F5909358
:1031D000390180933801609138017091390186E39B
:1031E00095E00E94F80581E08093050468EE73E0A5
:1031F00080E090E00E945B0480E795E00E94160763
:10320000892B41F080E795E00E942C07F5CF84EBF5
:1032100090E0DDCF64E670E080E090E00E945B0427
:103220001092040480910404882309F44BC00E9486
:103230008D0400910004109101042091020430914A
:103240000304601B710B820B930B6838734181057B
:10325000910508F4A8CD8AE494E00E94000C0E9435
:10326000EE0D0E94DE0D0E94CE0D0E94CA0C64E19C
:1032700070E080E090E00E945B040E94CA0C64E170
:1032800070E080E090E00E945B040E94CA0C64E160
:1032900070E080E090E00E945B048AE294E00E948B
:1032A000000C109213041092120410920504109254
:1032B000040410920004109201041092020410926F
:1032C000030471CD80910604882309F45DC080E772
:1032D00095E00E94630780E795E00E941607892B1E
:1032E00029F080E795E00E942C07F5CF64E670E0B6
:1032F00080E090E00E945B0460E775E0CE010796F5
:103300000E94970E8B859C85892BC9F182E194E000
:103310000E94000CCE0107960E94FE0DBE01695F5F
:103320007F4FCE0101960E940C0FCE0101960E94A4
:10333000130ECE0101960E943C0EBE01695F7F4FC5
:10334000CE0101960E940C0F61E070E0CE01019663
:103350000E945E0FCE0101960E943C0E0E948D04D9
:10336000609300047093010480930204909303041B
:1033700081E0809304048BEE93E00E94000CCE0168
:1033800007960E943C0E04C08CEC93E00E94000C57
:1033900062E370E080E090E005C28091FF0381115C
:1033A00076C080EB93E00E94000C809136019091F2
:1033B00037018B5A9F4F853B910554F59093370108
:1033C00080933601E0903601F0903701B70180E339
:1033D00095E00E94F8051092FE031092FD03009103
:1033E000FD031091FE03E016F106ACF0B80180E396
:1033F00095E00E94F8056FE070E080E090E00E94A8
:103400005B04015011091093FE030093FD03E7CF05
:1034100084EB90E0D3CF85E193E00E940A0D809188
:103420003801909139010A9697FD24C09093390193
:1034300080933801609138017091390186E395E0FD
:103440000E94F80588E293E00E940A0D81E08093D3
:10345000FF0368EE73E080E090E00E945B048FE879
:1034600095E00E941607892B51F08FE895E00E94A5
:103470002C07F5CF1092390110923801DBCF64E6AA
:1034800070E080E090E00E945B0410920404809160
:103490000404882309F441C00E948D0400910004B3
:1034A000109101042091020430910304601B710B00
:1034B000820B930B683873418105910508F473CC36
:1034C0008FE893E00E94000C0E94EE0D0E94DE0D3A
:1034D0000E94CE0D0E94CA0C64E170E080E090E092
:1034E0000E945B040E94CA0C64E170E080E090E0FE
:1034F0000E945B040E94CA0C64E170E080E090E0EE
:103500000E945B048FE693E00E94000C109213046B
:10351000109212041092FF03CACE809106048823F1
:1035200009F447C08FE895E00E9463076FE875E0F3
:10353000CE0107960E94970E8B859C85892B09F4F6
:103540001ECF87E593E00E948605CE0107960E9474
:10355000FE0DBE01695F7F4FCE0101960E940C0FE8
:10356000CE0101960E94130ECE0101960E943C0EE0
:10357000BE01695F7F4FCE0101960E940C0F62E091
:1035800070E0CE0101960E945E0FCE0101960E946E
:103590003C0E0E948D04609300047093010480939C
:1035A00002049093030481E08093040480E393E099
:1035B000E4CE81E193E0EACE002309F431CB11E0BF
:1035C00001E038CB10920F048DE895E00E94000CCA
:1035D0002BCC463951050CF087CD873991050CF479
:1035E00083CD08EA12E0243631050CF07DCDB4011C
:1035F000C8010E94341181E792E00E948605C8014B
:103600000E94C30C83E692E00E948605C4010E94DA
:103610002E0E62E370E080E090E00E945B0462E0C6
:1036200070E0CE0101960E94590D49815A818B812B
:103630009C812D813E81493C51050CF46ACD843634
:1036400091050CF054CD243631050CF070CD08E90D
:1036500012E00EC0463951050CF069CD873991054D
:103660000CF465CD08EA12E0243631050CF05FCD8C
:10367000B601C8010E94341180E592E00E948605DF
:10368000C8010E94C30C82E492E00E948605C60134
:103690000E942E0EF6E0EF0EF11CAE14BF0409F0EE
:1036A000D4CC90E080E00E94820C64EF71E080E076
:1036B00090E00E945B0481E08093060482EF92E038
:1036C0000E94000C8FED92E00E94000C90E2E92E27
:1036D00091E0F92E10E000E084ED92E00E94860572
:1036E000C8010E94520C81ED92E00E948605F7010C
:1036F000819191917F010E940A0D0F5F1F4F0A3047
:10370000110551F78CEB92E00E94000C8EE5E82E3B
:1037100081E0F82E09EE13E089EB92E00E94860525
:10372000F701808191810E94C30C86EB92E00E9498
:103730008605F801808191818F3F980731F00E94C2
:10374000520C84EB92E00E948605F80182819381FD
:103750008F3F980731F00E94520C84EB92E00E9458
:10376000860583EA91E00E94F30B23E0E20EF11C50
:103770000C5F1F4F83E00D3F180771F687E992E059
:103780000E94000C85EA94E00E94000C87E894E017
:103790000E94000C109213041092120464EF71E066
:1037A00080E090E00E945B04FECA112309F429CA5C
:1037B00006CFFC01138E128E118E108E178A168A78
:1037C0008DE991E0958F848F84858631D8F52DEB36
:1037D00030E0378B268B2BE931E0318F208F2CE2C4
:1037E00031E0338F228F90916800883070F121E0B2
:1037F0008E3008F420E081E001C0880F2A95EAF7B6
:10380000892B8093680084852DE630E0883050F065
:103810002BE630E08E3030F02CE630E0863110F0D0
:1038200030E020E0348B238B282F30E0883078F490
:1038300091E001C0990F8A95EAF7958B848D958D5B
:103840000197F1F7CF010C94630784E0D9CF8E3054
:1038500040F42850310991E001C0990F2A95EAF708
:10386000ECCF2E503109F7CFCF93DF93C5E9D1E0EC
:10387000D0935205C093510581E595E00E944D0714
:10388000D0939005C0938F058FE895E00E944D0777
:10389000D0937105C093700580E795E0DF91CF91DB
:1038A0000C944D070E94941C08F481E00895E8945C
:1038B00009C097FB3EF490958095709561957F4F78
:1038C0008F4F9F4F9923A9F0F92F96E9BB27939526
:1038D000F695879577956795B795F111F8CFFAF436
:1038E000BB0F11F460FF1BC06F5F7F4F8F4F9F4F67
:1038F00016C0882311F096E911C0772321F09EE8C5
:10390000872F762F05C0662371F096E8862F70E02A
:1039100060E02AF09A95660F771F881FDAF7880F04
:103920009695879597F90895990F0008550FAA0B5A
:10393000E0E8FEEF16161706E807F907C0F01216C2
:103940001306E407F50798F0621B730B840B950BC5
:1039500039F40A2661F0232B242B252B21F408951A
:103960000A2609F4A140A6958FEF811D811D0895B7
:103970000E94CB1C0C943C1D0E942E1D38F00E940E
:10398000351D20F0952311F00C94251D0C942B1D52
:1039900011240C94701D0E944D1D70F3959FC1F36E
:1039A000950F50E0551F629FF001729FBB27F00DED
:1039B000B11D639FAA27F00DB11DAA1F649F662742
:1039C000B00DA11D661F829F2227B00DA11D621F91
:1039D000739FB00DA11D621F839FA00D611D221F4B
:1039E000749F3327A00D611D231F849F600D211D2F
:1039F000822F762F6A2F11249F5750409AF0F1F0B2
:103A000088234AF0EE0FFF1FBB1F661F771F881F1A
:103A100091505040A9F79E3F510580F00C94251D10
:103A20000C94701D5F3FE4F3983ED4F38695779530
:103A30006795B795F795E7959F5FC1F7FE2B880FC0
:103A4000911D9695879597F9089597F99F6780E856
:103A500070E060E008959FEF80EC089500240A94E0
:103A60001616170618060906089500240A94121659
:103A70001306140605060895092E0394000C11F48C
:103A8000882352F0BB0F40F4BF2B11F460FF04C039
:103A90006F5F7F4F8F4F9F4F089557FD9058440F92
:103AA000551F59F05F3F71F04795880F97FB991F9D
:103AB00061F09F3F79F0879508951216130614065A
:103AC000551FF2CF4695F1DF08C0161617061806E7
:103AD000991FF1CF86957105610508940895E894C2
:103AE000BB2766277727CB0197F90895052E97FB0B
:103AF0001EF400940E948D1D57FD07D00E94DF1D0B
:103B000007FC03D04EF40C948D1D509540953095D4
:103B100021953F4F4F4F5F4F089590958095709539
:103B200061957F4F8F4F9F4F08950E94011EA59F63
:103B3000900DB49F900DA49F800D911D11240895A8
:103B4000B7FF0C94951D0E94951D821B930B089541
:103B50002F923F924F925F926F927F928F929F929D
:103B6000AF92BF92CF92DF92EF92FF920F931F938B
:103B7000CF93DF93CDB7DEB7CA1BDB0B0FB6F8943C
:103B8000DEBF0FBECDBF09942A88398848885F847C
:103B90006E847D848C849B84AA84B984C884DF80ED
:103BA000EE80FD800C811B81AA81B981CE0FD11DD1
:103BB0000FB6F894DEBF0FBECDBFED010895A1E2B0
:103BC0001A2EAA1BBB1BFD010DC0AA1FBB1FEE1F97
:103BD000FF1FA217B307E407F50720F0A21BB30BE2
:103BE000E40BF50B661F771F881F991F1A9469F75E
:103BF00060957095809590959B01AC01BD01CF01BA
:103C00000895A29FB001B39FC001A39F700D811DB5
:103C10001124911DB29F700D811D1124911D0895D5
:103C20005058BB27AA270E94281E0C943C1D0E94B6
:103C30002E1D38F00E94351D20F039F49F3F19F4F5
:103C400026F40C942B1D0EF4E095E7FB0C94251D37
:103C5000E92F0E944D1D58F3BA17620773078407B6
:103C6000950720F079F4A6F50C946F1D0EF4E095FD
:103C70000B2EBA2FA02D0B01B90190010C01CA0126
:103C8000A0011124FF27591B99F0593F50F4503ED1
:103C900068F11A16F040A22F232F342F4427585FC3
:103CA000F3CF469537952795A795F0405395C9F7DB
:103CB0007EF41F16BA0B620B730B840BBAF0915093
:103CC000A1F0FF0FBB1F661F771F881FC2F70EC032
:103CD000BA0F621F731F841F48F487957795679505
:103CE000B795F7959E3F08F0B0CF9395880F08F0F1
:103CF0009927EE0F9795879508950E94911E0C9431
:103D00003C1D0E94351D58F00E942E1D40F029F4E4
:103D10005F3F29F00C94251D51110C94701D0C94DB
:103D20002B1D0E944D1D68F39923B1F3552391F388
:103D3000951B550BBB27AA2762177307840738F01A
:103D40009F5F5F4F220F331F441FAA1FA9F335D077
:103D50000E2E3AF0E0E832D091505040E695001C2B
:103D6000CAF72BD0FE2F29D0660F771F881FBB1FE5
:103D7000261737074807AB07B0E809F0BB0B802DC3
:103D8000BF01FF2793585F4F3AF09E3F510578F0EF
:103D90000C94251D0C94701D5F3FE4F3983ED4F302
:103DA000869577956795B795F7959F5FC9F7880FC3
:103DB000911D9695879597F90895E1E0660F771F15
:103DC000881FBB1F621773078407BA0720F0621BA6
:103DD000730B840BBA0BEE1F88F7E09508950E94D1
:103DE000551D88F09F5798F0B92F9927B751B0F01B
:103DF000E1F0660F771F881F991F1AF0BA95C9F76F
:103E000014C0B13091F00E946F1DB1E008950C9480
:103E10006F1D672F782F8827B85F39F0B93FCCF333
:103E2000869577956795B395D9F73EF490958095EB
:103E3000709561957F4F8F4F9F4F08950E94941CFE
:103E400008F48FEF0895991B79E004C0991F961725
:103E500008F0961B881F7A95C9F7809508950E94EF
:103E6000011EB7FF0895821B930B0895EE0FFF1FED
:103E70000590F491E02D09940F931F93CF93DF9356
:103E80008230910510F482E090E0E091B005F0916D
:103E9000B10530E020E0B0E0A0E0309799F42115C2
:103EA000310509F44AC0281B390B24303105D8F5F7
:103EB0008A819B816115710589F1FB01938382835E
:103EC000FE0111C0408151810281138148175907B9
:103ED000E0F04817590799F4109761F012960C9387
:103EE000129713961C933296CF01DF91CF911F91B9
:103EF0000F9108950093B0051093B105F4CF2115EB
:103F0000310551F04217530738F0A901DB019A013E
:103F1000BD01DF01F801C1CFEF01F9CF9093B105E9
:103F20008093B005CDCFFE01E20FF31F81939193F3
:103F30002250310939832883D7CF2091AE053091A3
:103F4000AF05232B41F420913C0130913D0130938A
:103F5000AF052093AE0520913A0130913B01211528
:103F6000310541F42DB73EB740913E0150913F01DC
:103F7000241B350BE091AE05F091AF05E217F30776
:103F8000A0F42E1B3F0B2817390778F0AC014E5FC9
:103F90005F4F2417350748F04E0F5F1F5093AF0552
:103FA0004093AE05819391939FCFF0E0E0E09CCFEA
:103FB000CF93DF930097E9F0FC01329713821282CE
:103FC000A091B005B091B105ED0130E020E010976F
:103FD000A1F420813181820F931F2091AE05309191
:103FE000AF052817390709F061C0F093AF05E093DA
:103FF000AE05DF91CF910895EA01CE17DF07E8F50E
:104000004A815B819E0141155105B1F7E901FB83AE
:10401000EA8349915991C40FD51FEC17FD0761F44C
:10402000808191810296840F951FE901998388838D
:10403000828193819B838A83F0E0E0E012968D91E8
:104040009C9113970097B9F52D913C911197CD0153
:104050000296820F931F2091AE053091AF0528176D
:10406000390739F6309751F51092B1051092B00525
:10407000B093AF05A093AE05BCCFD383C28340817C
:104080005181840F951FC817D90761F44E5F5F4FA8
:1040900088819981480F591F518340838A819B8170
:1040A000938382832115310509F0B0CFF093B105D8
:1040B000E093B0059ECFFD01DC01C0CF13821282D8
:1040C000D7CFB0E0A0E0E7E6F0E20C94AA1D8C01A7
:1040D000009751F4CB010E943C1F8C01C801CDB761
:1040E000DEB7E0E10C94C61DFC01E60FF71F9C0152
:1040F00022503109E217F30708F49DC0D901CD9190
:10410000DC911197C617D70798F0C530D10530F369
:10411000CE0104978617970708F3C61BD70B229783
:10412000C193D1936D937C93CF010E94D81FD6CFBA
:104130005B01AC1ABD0A4C018C0E9D1EA091B0050E
:10414000B091B105512C412CF12CE12C109731F597
:104150008091AE059091AF058815990509F05CC076
:104160004616570608F058C080913A0190913B01DD
:10417000009741F48DB79EB740913E0150913F01A9
:10418000841B950BE817F90708F055C0F093AF05AD
:10419000E093AE05F90171836083A0CF8D919C916E
:1041A000119712966C90129713967C901397A815FE
:1041B000B90559F56C0142E0C40ED11CCA14DB04E8
:1041C00020F1AC014A195B09DA011296159780F0CB
:1041D0006282738251834083D9016D937C93E11491
:1041E000F10471F0D7011396FC93EE93129776CFFA
:1041F00022968C0F9D1FF90191838083F301EFCFED
:10420000F093B105E093B00569CF4816590608F45C
:104210002C017D01D3019ACFCB010E943C1F7C0170
:10422000009749F0AE01B8010E942621C8010E9402
:10423000D81F870153CF10E000E050CF91110895AF
:1042400081548A5108F4805E855A0895FB01DC018F
:1042500002C001900D9241505040D8F70895FB01E3
:10426000DC018D91019080190110D9F3990B08950B
:10427000FB01DC0101900D920020E1F7089513E0AD
:10428000C7E2D3E004C0FE010E94361F2196C83267
:08429000D107C9F7F894FFCF34
:104298005A005A005A005A005A005A005A005A0046
:1042A8005A005A005A005A005A005A005A005A0036
:1042B80025022502250225022502250225022502BE
:1042C800250225023A00A00058000000B20580002F
:1042D8000000000005002F00010006005A0002003F
:1042E8000700820003000800AF00040009009802DC
:1042F800729C0279A30262A80267AE0277000000EE
:104308000039059904C604A105F704D504E9040099
:104318000000006A0A3D0A990AB906360A230A14F7
:104328000A00000000BA069904990AB90616072C73
:1043380007A1060D0A0053656E7420746F2053544C
:104348004D33323A20646174613D0054434139353C
:10435800343841206E6F7420666F756E6421004694
:1043680061696C656420746F2073656C6563742083
:10437800544341206368616E6E656C2000E58FB31D
:10438800E888B5E69CBAE5A48DE4BD8DE5889DE591
:10439800A78BE8A792E5BAA600E5B7A6E888B5E630
:1043A8009CBAE5A48DE4BD8DE5889DE5A78BE8A7BB
:1043B80092E5BAA600556E6B6E6F776E0045727205
:1043C8006F723A204D617070696E67204E6F74206D
:1043D800436F6D706C657465642100474D363520F8
:1043E8000020526561643A20004572726F723A206B
:1043F8004E6F204368616E6E656C7320466F756EF4
:1044080064210052656C6561736520416C6C200005
:104418002042616C6C7320284368616E6E656C7312
:104428003A20002C200029005265640059656C6C04
:104438006F7700426C756500477265656E00576856
:1044480069746500E7BFBBE8BDACE888B5E69CBA0F
:10445800E5889DE5A78BE58C96E5AE8CE68890000F
:10446800E5B7A6E888B5E69CBAE5889DE5A78BE59B
:104478008C96E5AE8CE6889000E58FB3E888B5E6C3
:104488009CBAE5889DE5A78BE58C96E5AE8CE68819
:104498009000E5B7A6E6BB91E98193E5B7B2E6944B
:1044A800BEE4B88B00E58FB3E6BB91E98193E5B72D
:1044B800B2E694BEE4B88B00E58FB3E7BFBB20003B
:00000001FF
